{
  "_format": "hh-sol-artifact-1",
  "contractName": "DappEventX",
  "sourceName": "contracts/DappEventX.sol",
  "abi": [
    {
      "inputs": [
        {
          "internalType": "uint256",
          "name": "_pct",
          "type": "uint256"
        }
      ],
      "stateMutability": "nonpayable",
      "type": "constructor"
    },
    {
      "anonymous": false,
      "inputs": [
        {
          "indexed": true,
          "internalType": "address",
          "name": "owner",
          "type": "address"
        },
        {
          "indexed": true,
          "internalType": "address",
          "name": "approved",
          "type": "address"
        },
        {
          "indexed": true,
          "internalType": "uint256",
          "name": "tokenId",
          "type": "uint256"
        }
      ],
      "name": "Approval",
      "type": "event"
    },
    {
      "anonymous": false,
      "inputs": [
        {
          "indexed": true,
          "internalType": "address",
          "name": "owner",
          "type": "address"
        },
        {
          "indexed": true,
          "internalType": "address",
          "name": "operator",
          "type": "address"
        },
        {
          "indexed": false,
          "internalType": "bool",
          "name": "approved",
          "type": "bool"
        }
      ],
      "name": "ApprovalForAll",
      "type": "event"
    },
    {
      "anonymous": false,
      "inputs": [
        {
          "indexed": true,
          "internalType": "address",
          "name": "previousOwner",
          "type": "address"
        },
        {
          "indexed": true,
          "internalType": "address",
          "name": "newOwner",
          "type": "address"
        }
      ],
      "name": "OwnershipTransferred",
      "type": "event"
    },
    {
      "anonymous": false,
      "inputs": [
        {
          "indexed": true,
          "internalType": "address",
          "name": "from",
          "type": "address"
        },
        {
          "indexed": true,
          "internalType": "address",
          "name": "to",
          "type": "address"
        },
        {
          "indexed": true,
          "internalType": "uint256",
          "name": "tokenId",
          "type": "uint256"
        }
      ],
      "name": "Transfer",
      "type": "event"
    },
    {
      "inputs": [
        {
          "internalType": "address",
          "name": "to",
          "type": "address"
        },
        {
          "internalType": "uint256",
          "name": "tokenId",
          "type": "uint256"
        }
      ],
      "name": "approve",
      "outputs": [],
      "stateMutability": "nonpayable",
      "type": "function"
    },
    {
      "inputs": [],
      "name": "balance",
      "outputs": [
        {
          "internalType": "uint256",
          "name": "",
          "type": "uint256"
        }
      ],
      "stateMutability": "view",
      "type": "function"
    },
    {
      "inputs": [
        {
          "internalType": "address",
          "name": "owner",
          "type": "address"
        }
      ],
      "name": "balanceOf",
      "outputs": [
        {
          "internalType": "uint256",
          "name": "",
          "type": "uint256"
        }
      ],
      "stateMutability": "view",
      "type": "function"
    },
    {
      "inputs": [
        {
          "internalType": "uint256",
          "name": "eventId",
          "type": "uint256"
        },
        {
          "internalType": "uint256",
          "name": "numOfticket",
          "type": "uint256"
        }
      ],
      "name": "buyTickets",
      "outputs": [],
      "stateMutability": "payable",
      "type": "function"
    },
    {
      "inputs": [
        {
          "internalType": "string",
          "name": "title",
          "type": "string"
        },
        {
          "internalType": "string",
          "name": "description",
          "type": "string"
        },
        {
          "internalType": "string",
          "name": "imageUrl",
          "type": "string"
        },
        {
          "internalType": "uint256",
          "name": "capacity",
          "type": "uint256"
        },
        {
          "internalType": "uint256",
          "name": "ticketCost",
          "type": "uint256"
        },
        {
          "internalType": "uint256",
          "name": "startsAt",
          "type": "uint256"
        },
        {
          "internalType": "uint256",
          "name": "endsAt",
          "type": "uint256"
        }
      ],
      "name": "createEvent",
      "outputs": [],
      "stateMutability": "nonpayable",
      "type": "function"
    },
    {
      "inputs": [
        {
          "internalType": "uint256",
          "name": "eventId",
          "type": "uint256"
        }
      ],
      "name": "deleteEvent",
      "outputs": [],
      "stateMutability": "nonpayable",
      "type": "function"
    },
    {
      "inputs": [
        {
          "internalType": "uint256",
          "name": "tokenId",
          "type": "uint256"
        }
      ],
      "name": "getApproved",
      "outputs": [
        {
          "internalType": "address",
          "name": "",
          "type": "address"
        }
      ],
      "stateMutability": "view",
      "type": "function"
    },
    {
      "inputs": [
        {
          "internalType": "uint256",
          "name": "eventId",
          "type": "uint256"
        }
      ],
      "name": "getEvent",
      "outputs": [
        {
          "components": [
            {
              "internalType": "uint256",
              "name": "id",
              "type": "uint256"
            },
            {
              "internalType": "string",
              "name": "title",
              "type": "string"
            },
            {
              "internalType": "string",
              "name": "imageUrl",
              "type": "string"
            },
            {
              "internalType": "string",
              "name": "description",
              "type": "string"
            },
            {
              "internalType": "address",
              "name": "owner",
              "type": "address"
            },
            {
              "internalType": "uint256",
              "name": "sales",
              "type": "uint256"
            },
            {
              "internalType": "uint256",
              "name": "ticketCost",
              "type": "uint256"
            },
            {
              "internalType": "uint256",
              "name": "capacity",
              "type": "uint256"
            },
            {
              "internalType": "uint256",
              "name": "seats",
              "type": "uint256"
            },
            {
              "internalType": "uint256",
              "name": "startsAt",
              "type": "uint256"
            },
            {
              "internalType": "uint256",
              "name": "endsAt",
              "type": "uint256"
            },
            {
              "internalType": "uint256",
              "name": "timestamp",
              "type": "uint256"
            },
            {
              "internalType": "bool",
              "name": "deleted",
              "type": "bool"
            },
            {
              "internalType": "bool",
              "name": "paidOut",
              "type": "bool"
            },
            {
              "internalType": "bool",
              "name": "refunded",
              "type": "bool"
            },
            {
              "internalType": "bool",
              "name": "minted",
              "type": "bool"
            }
          ],
          "internalType": "struct DappEventX.EventStruct",
          "name": "",
          "type": "tuple"
        }
      ],
      "stateMutability": "view",
      "type": "function"
    },
    {
      "inputs": [],
      "name": "getEvents",
      "outputs": [
        {
          "components": [
            {
              "internalType": "uint256",
              "name": "id",
              "type": "uint256"
            },
            {
              "internalType": "string",
              "name": "title",
              "type": "string"
            },
            {
              "internalType": "string",
              "name": "imageUrl",
              "type": "string"
            },
            {
              "internalType": "string",
              "name": "description",
              "type": "string"
            },
            {
              "internalType": "address",
              "name": "owner",
              "type": "address"
            },
            {
              "internalType": "uint256",
              "name": "sales",
              "type": "uint256"
            },
            {
              "internalType": "uint256",
              "name": "ticketCost",
              "type": "uint256"
            },
            {
              "internalType": "uint256",
              "name": "capacity",
              "type": "uint256"
            },
            {
              "internalType": "uint256",
              "name": "seats",
              "type": "uint256"
            },
            {
              "internalType": "uint256",
              "name": "startsAt",
              "type": "uint256"
            },
            {
              "internalType": "uint256",
              "name": "endsAt",
              "type": "uint256"
            },
            {
              "internalType": "uint256",
              "name": "timestamp",
              "type": "uint256"
            },
            {
              "internalType": "bool",
              "name": "deleted",
              "type": "bool"
            },
            {
              "internalType": "bool",
              "name": "paidOut",
              "type": "bool"
            },
            {
              "internalType": "bool",
              "name": "refunded",
              "type": "bool"
            },
            {
              "internalType": "bool",
              "name": "minted",
              "type": "bool"
            }
          ],
          "internalType": "struct DappEventX.EventStruct[]",
          "name": "Events",
          "type": "tuple[]"
        }
      ],
      "stateMutability": "view",
      "type": "function"
    },
    {
      "inputs": [],
      "name": "getMyEvents",
      "outputs": [
        {
          "components": [
            {
              "internalType": "uint256",
              "name": "id",
              "type": "uint256"
            },
            {
              "internalType": "string",
              "name": "title",
              "type": "string"
            },
            {
              "internalType": "string",
              "name": "imageUrl",
              "type": "string"
            },
            {
              "internalType": "string",
              "name": "description",
              "type": "string"
            },
            {
              "internalType": "address",
              "name": "owner",
              "type": "address"
            },
            {
              "internalType": "uint256",
              "name": "sales",
              "type": "uint256"
            },
            {
              "internalType": "uint256",
              "name": "ticketCost",
              "type": "uint256"
            },
            {
              "internalType": "uint256",
              "name": "capacity",
              "type": "uint256"
            },
            {
              "internalType": "uint256",
              "name": "seats",
              "type": "uint256"
            },
            {
              "internalType": "uint256",
              "name": "startsAt",
              "type": "uint256"
            },
            {
              "internalType": "uint256",
              "name": "endsAt",
              "type": "uint256"
            },
            {
              "internalType": "uint256",
              "name": "timestamp",
              "type": "uint256"
            },
            {
              "internalType": "bool",
              "name": "deleted",
              "type": "bool"
            },
            {
              "internalType": "bool",
              "name": "paidOut",
              "type": "bool"
            },
            {
              "internalType": "bool",
              "name": "refunded",
              "type": "bool"
            },
            {
              "internalType": "bool",
              "name": "minted",
              "type": "bool"
            }
          ],
          "internalType": "struct DappEventX.EventStruct[]",
          "name": "Events",
          "type": "tuple[]"
        }
      ],
      "stateMutability": "view",
      "type": "function"
    },
    {
      "inputs": [
        {
          "internalType": "address",
          "name": "owner",
          "type": "address"
        },
        {
          "internalType": "address",
          "name": "operator",
          "type": "address"
        }
      ],
      "name": "isApprovedForAll",
      "outputs": [
        {
          "internalType": "bool",
          "name": "",
          "type": "bool"
        }
      ],
      "stateMutability": "view",
      "type": "function"
    },
    {
      "inputs": [],
      "name": "name",
      "outputs": [
        {
          "internalType": "string",
          "name": "",
          "type": "string"
        }
      ],
      "stateMutability": "view",
      "type": "function"
    },
    {
      "inputs": [],
      "name": "owner",
      "outputs": [
        {
          "internalType": "address",
          "name": "",
          "type": "address"
        }
      ],
      "stateMutability": "view",
      "type": "function"
    },
    {
      "inputs": [
        {
          "internalType": "uint256",
          "name": "tokenId",
          "type": "uint256"
        }
      ],
      "name": "ownerOf",
      "outputs": [
        {
          "internalType": "address",
          "name": "",
          "type": "address"
        }
      ],
      "stateMutability": "view",
      "type": "function"
    },
    {
      "inputs": [
        {
          "internalType": "uint256",
          "name": "eventId",
          "type": "uint256"
        }
      ],
      "name": "payout",
      "outputs": [],
      "stateMutability": "nonpayable",
      "type": "function"
    },
    {
      "inputs": [],
      "name": "renounceOwnership",
      "outputs": [],
      "stateMutability": "nonpayable",
      "type": "function"
    },
    {
      "inputs": [
        {
          "internalType": "address",
          "name": "from",
          "type": "address"
        },
        {
          "internalType": "address",
          "name": "to",
          "type": "address"
        },
        {
          "internalType": "uint256",
          "name": "tokenId",
          "type": "uint256"
        }
      ],
      "name": "safeTransferFrom",
      "outputs": [],
      "stateMutability": "nonpayable",
      "type": "function"
    },
    {
      "inputs": [
        {
          "internalType": "address",
          "name": "from",
          "type": "address"
        },
        {
          "internalType": "address",
          "name": "to",
          "type": "address"
        },
        {
          "internalType": "uint256",
          "name": "tokenId",
          "type": "uint256"
        },
        {
          "internalType": "bytes",
          "name": "data",
          "type": "bytes"
        }
      ],
      "name": "safeTransferFrom",
      "outputs": [],
      "stateMutability": "nonpayable",
      "type": "function"
    },
    {
      "inputs": [
        {
          "internalType": "address",
          "name": "operator",
          "type": "address"
        },
        {
          "internalType": "bool",
          "name": "approved",
          "type": "bool"
        }
      ],
      "name": "setApprovalForAll",
      "outputs": [],
      "stateMutability": "nonpayable",
      "type": "function"
    },
    {
      "inputs": [
        {
          "internalType": "bytes4",
          "name": "interfaceId",
          "type": "bytes4"
        }
      ],
      "name": "supportsInterface",
      "outputs": [
        {
          "internalType": "bool",
          "name": "",
          "type": "bool"
        }
      ],
      "stateMutability": "view",
      "type": "function"
    },
    {
      "inputs": [],
      "name": "symbol",
      "outputs": [
        {
          "internalType": "string",
          "name": "",
          "type": "string"
        }
      ],
      "stateMutability": "view",
      "type": "function"
    },
    {
      "inputs": [
        {
          "internalType": "uint256",
          "name": "tokenId",
          "type": "uint256"
        }
      ],
      "name": "tokenURI",
      "outputs": [
        {
          "internalType": "string",
          "name": "",
          "type": "string"
        }
      ],
      "stateMutability": "view",
      "type": "function"
    },
    {
      "inputs": [
        {
          "internalType": "address",
          "name": "from",
          "type": "address"
        },
        {
          "internalType": "address",
          "name": "to",
          "type": "address"
        },
        {
          "internalType": "uint256",
          "name": "tokenId",
          "type": "uint256"
        }
      ],
      "name": "transferFrom",
      "outputs": [],
      "stateMutability": "nonpayable",
      "type": "function"
    },
    {
      "inputs": [
        {
          "internalType": "address",
          "name": "newOwner",
          "type": "address"
        }
      ],
      "name": "transferOwnership",
      "outputs": [],
      "stateMutability": "nonpayable",
      "type": "function"
    },
    {
      "inputs": [
        {
          "internalType": "uint256",
          "name": "eventId",
          "type": "uint256"
        },
        {
          "internalType": "string",
          "name": "title",
          "type": "string"
        },
        {
          "internalType": "string",
          "name": "description",
          "type": "string"
        },
        {
          "internalType": "string",
          "name": "imageUrl",
          "type": "string"
        },
        {
          "internalType": "uint256",
          "name": "capacity",
          "type": "uint256"
        },
        {
          "internalType": "uint256",
          "name": "ticketCost",
          "type": "uint256"
        },
        {
          "internalType": "uint256",
          "name": "startsAt",
          "type": "uint256"
        },
        {
          "internalType": "uint256",
          "name": "endsAt",
          "type": "uint256"
        }
      ],
      "name": "updateEvent",
      "outputs": [],
      "stateMutability": "nonpayable",
      "type": "function"
    }
  ],
  "bytecode": "0x60806040523480156200001157600080fd5b50604051620039813803806200398183398101604081905262000034916200010b565b6040518060400160405280600781526020016608aeccadce840b60cb1b8152506040518060400160405280600381526020016208aacb60eb1b8152506200008a62000084620000b760201b60201c565b620000bb565b6001805560026200009c8382620001ca565b506003620000ab8282620001ca565b505050600b5562000296565b3390565b600080546001600160a01b038381166001600160a01b0319831681178455604051919092169283917f8be0079c531659141344cd1fd0a4f28419497f9722a3daafe3b4186f6b6457e09190a35050565b6000602082840312156200011e57600080fd5b5051919050565b634e487b7160e01b600052604160045260246000fd5b600181811c908216806200015057607f821691505b6020821081036200017157634e487b7160e01b600052602260045260246000fd5b50919050565b601f821115620001c557600081815260208120601f850160051c81016020861015620001a05750805b601f850160051c820191505b81811015620001c157828155600101620001ac565b5050505b505050565b81516001600160401b03811115620001e657620001e662000125565b620001fe81620001f784546200013b565b8462000177565b602080601f8311600181146200023657600084156200021d5750858301515b600019600386901b1c1916600185901b178555620001c1565b600085815260208120601f198616915b82811015620002675788860151825594840194600190910190840162000246565b5085821015620002865787850151600019600388901b60f8161c191681555b5050505050600190811b01905550565b6136db80620002a66000396000f3fe6080604052600436106101665760003560e01c8063835e489f116100d1578063b88d4fde1161008a578063e985e9c511610064578063e985e9c51461041f578063ead6d0dd1461043f578063f2fde38b1461045f578063f8749a581461047f57600080fd5b8063b88d4fde146103bf578063c87b56dd146103df578063e1152343146103ff57600080fd5b8063835e489f146103235780638627df46146103435780638da5cb5b1461035657806395d89b4114610374578063a22cb46514610389578063b69ef8a8146103a957600080fd5b8063404aa8f911610123578063404aa8f91461025e57806342842e0e146102735780636352211e146102935780636d1884e0146102b357806370a08231146102e0578063715018a61461030e57600080fd5b806301ffc9a71461016b57806306fdde03146101a0578063081812fc146101c2578063095ea7b3146101fa57806323b872dd1461021c5780633548124b1461023c575b600080fd5b34801561017757600080fd5b5061018b610186366004612c67565b61049f565b60405190151581526020015b60405180910390f35b3480156101ac57600080fd5b506101b56104f1565b6040516101979190612cd4565b3480156101ce57600080fd5b506101e26101dd366004612ce7565b610583565b6040516001600160a01b039091168152602001610197565b34801561020657600080fd5b5061021a610215366004612d1c565b6105aa565b005b34801561022857600080fd5b5061021a610237366004612d46565b6106c4565b34801561024857600080fd5b506102516106f5565b6040516101979190612e7a565b34801561026a57600080fd5b50610251610acb565b34801561027f57600080fd5b5061021a61028e366004612d46565b610e4d565b34801561029f57600080fd5b506101e26102ae366004612ce7565b610e68565b3480156102bf57600080fd5b506102d36102ce366004612ce7565b610ec8565b6040516101979190612edc565b3480156102ec57600080fd5b506103006102fb366004612eef565b611155565b604051908152602001610197565b34801561031a57600080fd5b5061021a6111db565b34801561032f57600080fd5b5061021a61033e366004612fb6565b6111ef565b61021a610351366004613063565b611545565b34801561036257600080fd5b506000546001600160a01b03166101e2565b34801561038057600080fd5b506101b561186a565b34801561039557600080fd5b5061021a6103a4366004613085565b611879565b3480156103b557600080fd5b50610300600a5481565b3480156103cb57600080fd5b5061021a6103da3660046130c1565b611888565b3480156103eb57600080fd5b506101b56103fa366004612ce7565b6118c0565b34801561040b57600080fd5b5061021a61041a366004612ce7565b611934565b34801561042b57600080fd5b5061018b61043a36600461313d565b611b67565b34801561044b57600080fd5b5061021a61045a366004613170565b611b95565b34801561046b57600080fd5b5061021a61047a366004612eef565b611e20565b34801561048b57600080fd5b5061021a61049a366004612ce7565b611e99565b60006001600160e01b031982166380ac58cd60e01b14806104d057506001600160e01b03198216635b5e139f60e01b145b806104eb57506301ffc9a760e01b6001600160e01b03198316145b92915050565b60606002805461050090613226565b80601f016020809104026020016040519081016040528092919081815260200182805461052c90613226565b80156105795780601f1061054e57610100808354040283529160200191610579565b820191906000526020600020905b81548152906001019060200180831161055c57829003601f168201915b5050505050905090565b600061058e826120a0565b506000908152600660205260409020546001600160a01b031690565b60006105b582610e68565b9050806001600160a01b0316836001600160a01b0316036106275760405162461bcd60e51b815260206004820152602160248201527f4552433732313a20617070726f76616c20746f2063757272656e74206f776e656044820152603960f91b60648201526084015b60405180910390fd5b336001600160a01b038216148061064357506106438133611b67565b6106b55760405162461bcd60e51b815260206004820152603d60248201527f4552433732313a20617070726f76652063616c6c6572206973206e6f7420746f60448201527f6b656e206f776e6572206f7220617070726f76656420666f7220616c6c000000606482015260840161061e565b6106bf83836120ff565b505050565b6106ce338261216d565b6106ea5760405162461bcd60e51b815260040161061e90613260565b6106bf8383836121cc565b6060600060015b6008548111610766576000818152600c60208190526040909120015460ff1615801561074157506000818152600c60205260409020600401546001600160a01b031633145b156107545781610750816132c3565b9250505b8061075e816132c3565b9150506106fc565b508067ffffffffffffffff81111561078057610780612f0a565b6040519080825280602002602001820160405280156107b957816020015b6107a6612bc3565b81526020019060019003908161079e5790505b509150600060015b6008548111610ac5576000818152600c60208190526040909120015460ff1615801561080657506000818152600c60205260409020600401546001600160a01b031633145b15610ab357600c6000828152602001908152602001600020604051806102000160405290816000820154815260200160018201805461084490613226565b80601f016020809104026020016040519081016040528092919081815260200182805461087090613226565b80156108bd5780601f10610892576101008083540402835291602001916108bd565b820191906000526020600020905b8154815290600101906020018083116108a057829003601f168201915b505050505081526020016002820180546108d690613226565b80601f016020809104026020016040519081016040528092919081815260200182805461090290613226565b801561094f5780601f106109245761010080835404028352916020019161094f565b820191906000526020600020905b81548152906001019060200180831161093257829003601f168201915b5050505050815260200160038201805461096890613226565b80601f016020809104026020016040519081016040528092919081815260200182805461099490613226565b80156109e15780601f106109b6576101008083540402835291602001916109e1565b820191906000526020600020905b8154815290600101906020018083116109c457829003601f168201915b505050918352505060048201546001600160a01b03166020820152600582015460408201526006820154606082015260078201546080820152600882015460a0820152600982015460c0820152600a82015460e0820152600b82015461010080830191909152600c9092015460ff80821615156101208401529281048316151561014083015262010000810483161515610160830152630100000090049091161515610180909101528483610a95816132c3565b945081518110610aa757610aa76132dc565b60200260200101819052505b80610abd816132c3565b9150506107c1565b50505090565b6060600060015b6008548111610b15576000818152600c60208190526040909120015460ff16610b035781610aff816132c3565b9250505b80610b0d816132c3565b915050610ad2565b508067ffffffffffffffff811115610b2f57610b2f612f0a565b604051908082528060200260200182016040528015610b6857816020015b610b55612bc3565b815260200190600190039081610b4d5790505b509150600060015b6008548111610ac5576000818152600c60208190526040909120015460ff16610e3b57600c60008281526020019081526020016000206040518061020001604052908160008201548152602001600182018054610bcc90613226565b80601f0160208091040260200160405190810160405280929190818152602001828054610bf890613226565b8015610c455780601f10610c1a57610100808354040283529160200191610c45565b820191906000526020600020905b815481529060010190602001808311610c2857829003601f168201915b50505050508152602001600282018054610c5e90613226565b80601f0160208091040260200160405190810160405280929190818152602001828054610c8a90613226565b8015610cd75780601f10610cac57610100808354040283529160200191610cd7565b820191906000526020600020905b815481529060010190602001808311610cba57829003601f168201915b50505050508152602001600382018054610cf090613226565b80601f0160208091040260200160405190810160405280929190818152602001828054610d1c90613226565b8015610d695780601f10610d3e57610100808354040283529160200191610d69565b820191906000526020600020905b815481529060010190602001808311610d4c57829003601f168201915b505050918352505060048201546001600160a01b03166020820152600582015460408201526006820154606082015260078201546080820152600882015460a0820152600982015460c0820152600a82015460e0820152600b82015461010080830191909152600c9092015460ff80821615156101208401529281048316151561014083015262010000810483161515610160830152630100000090049091161515610180909101528483610e1d816132c3565b945081518110610e2f57610e2f6132dc565b60200260200101819052505b80610e45816132c3565b915050610b70565b6106bf83838360405180602001604052806000815250611888565b6000818152600460205260408120546001600160a01b0316806104eb5760405162461bcd60e51b8152602060048201526018602482015277115490cdcc8c4e881a5b9d985b1a59081d1bdad95b88125160421b604482015260640161061e565b610ed0612bc3565b600c60008381526020019081526020016000206040518061020001604052908160008201548152602001600182018054610f0990613226565b80601f0160208091040260200160405190810160405280929190818152602001828054610f3590613226565b8015610f825780601f10610f5757610100808354040283529160200191610f82565b820191906000526020600020905b815481529060010190602001808311610f6557829003601f168201915b50505050508152602001600282018054610f9b90613226565b80601f0160208091040260200160405190810160405280929190818152602001828054610fc790613226565b80156110145780601f10610fe957610100808354040283529160200191611014565b820191906000526020600020905b815481529060010190602001808311610ff757829003601f168201915b5050505050815260200160038201805461102d90613226565b80601f016020809104026020016040519081016040528092919081815260200182805461105990613226565b80156110a65780601f1061107b576101008083540402835291602001916110a6565b820191906000526020600020905b81548152906001019060200180831161108957829003601f168201915b505050918352505060048201546001600160a01b03166020820152600582015460408201526006820154606082015260078201546080820152600882015460a0820152600982015460c0820152600a82015460e0820152600b82015461010080830191909152600c9092015460ff808216151561012084015292810483161515610140830152620100008104831615156101608301526301000000900490911615156101809091015292915050565b60006001600160a01b0382166111bf5760405162461bcd60e51b815260206004820152602960248201527f4552433732313a2061646472657373207a65726f206973206e6f7420612076616044820152683634b21037bbb732b960b91b606482015260840161061e565b506001600160a01b031660009081526005602052604090205490565b6111e3612330565b6111ed600061238a565b565b6000831161120f5760405162461bcd60e51b815260040161061e906132f2565b6000841161126a5760405162461bcd60e51b815260206004820152602260248201527f4361706163697479206d7573742062652067726561746572207468616e207a65604482015261726f60f01b606482015260840161061e565b60008751116112b35760405162461bcd60e51b81526020600482015260156024820152745469746c652063616e6e6f7420626520656d70747960581b604482015260640161061e565b60008651116113045760405162461bcd60e51b815260206004820152601b60248201527f4465736372697074696f6e2063616e6e6f7420626520656d7074790000000000604482015260640161061e565b60008551116113505760405162461bcd60e51b8152602060048201526018602482015277496d61676555726c2063616e6e6f7420626520656d70747960401b604482015260640161061e565b600082116113705760405162461bcd60e51b815260040161061e90613336565b81811161138f5760405162461bcd60e51b815260040161061e9061337a565b61139d600880546001019055565b6113a5612bc3565b600854815260208101889052606081018790526040810186905260e0810185905260c08101849052610120810183905261014081018290523360808201526113eb6123da565b61016082015280516000908152600e60209081526040808320805460ff1916600190811790915584518452600c83529220835181559083015183928201906114339082613410565b50604082015160028201906114489082613410565b506060820151600382019061145d9082613410565b5060808201516004820180546001600160a01b0319166001600160a01b0390921691909117905560a0820151600582015560c0820151600682015560e082015160078201556101008083015160088301556101208301516009830155610140830151600a830155610160830151600b830155610180830151600c90920180546101a08501516101c08601516101e09096015161ffff1990921694151561ff001916949094179315159092029290921763ffff00001916620100009315159390930263ff0000001916929092176301000000921515929092029190911790555050505050505050565b6000828152600e602052604090205460ff166115735760405162461bcd60e51b815260040161061e906134d0565b6000828152600c60205260409020600601546115909082906134f9565b3410156115d55760405162461bcd60e51b8152602060048201526013602482015272125b9cdd59999a58da595b9d08185b5bdd5b9d606a1b604482015260640161061e565b6000828152600c60205260409020600901546115ef6123da565b106116345760405162461bcd60e51b8152602060048201526015602482015274115d995b9d08185b1c9958591e481cdd185c9d1959605a1b604482015260640161061e565b600081116116925760405162461bcd60e51b815260206004820152602560248201527f4e756d4f667469636b6574206d7573742062652067726561746572207468616e604482015264207a65726f60d81b606482015260840161061e565b6000828152600c6020526040902060078101546008909101546116b6908390613510565b11156117045760405162461bcd60e51b815260206004820152601760248201527f4f7574206f662073656174696e67206361706163697479000000000000000000604482015260640161061e565b60005b8181101561184e5761175c6040518060e00160405280600081526020016000815260200160006001600160a01b0316815260200160008152602001600081526020016000151581526020016000151581525090565b6000848152600d602090815260408083205484528382018790523384820152868352600c90915290206006015460608201526117966123da565b608082019081526000858152600d6020908152604080832080546001818101835591855293839020865160069095020193845591850151918301919091558301516002820180546001600160a01b039092166001600160a01b0319909216919091179055606083015160038201559051600482015560a08201516005909101805460c09093015115156101000261ff00199215159290921661ffff199093169290921717905580611846816132c3565b915050611707565b5034600a60008282546118619190613510565b90915550505050565b60606003805461050090613226565b6118843383836123f9565b5050565b611892338361216d565b6118ae5760405162461bcd60e51b815260040161061e90613260565b6118ba848484846124c7565b50505050565b60606118cb826120a0565b60006118e260408051602081019091526000815290565b90506000815111611902576040518060200160405280600081525061192d565b8061190c846124fa565b60405160200161191d929190613523565b6040516020818303038152906040525b9392505050565b6000818152600e602052604090205460ff166119625760405162461bcd60e51b815260040161061e906134d0565b6000818152600c602081905260409091200154610100900460ff16156119c35760405162461bcd60e51b8152602060048201526016602482015275115d995b9d08185b1c9958591e481c185a59081bdd5d60521b604482015260640161061e565b6000818152600c60205260409020600a01546119dd6123da565b11611a205760405162461bcd60e51b81526020600482015260136024820152724576656e74207374696c6c206f6e676f696e6760681b604482015260640161061e565b6000818152600c60205260409020600401546001600160a01b0316331480611a5257506000546001600160a01b031633145b611a6e5760405162461bcd60e51b815260040161061e90613552565b611a778161258d565b611aba5760405162461bcd60e51b8152602060048201526014602482015273115d995b9d0819985a5b1959081d1bc81b5a5b9d60621b604482015260640161061e565b6000818152600d6020908152604080832054600c909252822060060154611ae191906134f9565b905060006064600b5483611af591906134f9565b611aff919061357f565b6000848152600c6020526040902060040154909150611b30906001600160a01b0316611b2b83856135a1565b61268f565b611b4b611b456000546001600160a01b031690565b8261268f565b81600a6000828254611b5d91906135a1565b9091555050505050565b6001600160a01b03918216600090815260076020908152604080832093909416825291909152205460ff1690565b6000888152600e602052604090205460ff16611bc35760405162461bcd60e51b815260040161061e906134d0565b6000888152600c60205260409020600401546001600160a01b03163314611bfc5760405162461bcd60e51b815260040161061e90613552565b60008311611c1c5760405162461bcd60e51b815260040161061e906132f2565b60008411611c775760405162461bcd60e51b815260206004820152602260248201527f6361706163697479206d7573742062652067726561746572207468616e207a65604482015261726f60f01b606482015260840161061e565b6000875111611cc05760405162461bcd60e51b81526020600482015260156024820152745469746c652063616e6e6f7420626520656d70747960581b604482015260640161061e565b6000865111611d115760405162461bcd60e51b815260206004820152601b60248201527f4465736372697074696f6e2063616e6e6f7420626520656d7074790000000000604482015260640161061e565b6000855111611d5d5760405162461bcd60e51b8152602060048201526018602482015277496d61676555726c2063616e6e6f7420626520656d70747960401b604482015260640161061e565b818111611d7c5760405162461bcd60e51b815260040161061e9061337a565b60008211611d9c5760405162461bcd60e51b815260040161061e90613336565b6000888152600c60205260409020600101611db78882613410565b506000888152600c60205260409020600301611dd38782613410565b506000888152600c60205260409020600201611def8682613410565b506000978852600c6020526040909720600781019390935560068301919091556009820155600a0193909355505050565b611e28612330565b6001600160a01b038116611e8d5760405162461bcd60e51b815260206004820152602660248201527f4f776e61626c653a206e6577206f776e657220697320746865207a65726f206160448201526564647265737360d01b606482015260840161061e565b611e968161238a565b50565b6000818152600e602052604090205460ff16611ec75760405162461bcd60e51b815260040161061e906134d0565b6000818152600c60205260409020600401546001600160a01b0316331480611ef957506000546001600160a01b031633145b611f155760405162461bcd60e51b815260040161061e90613552565b6000818152600c602081905260409091200154610100900460ff1615611f765760405162461bcd60e51b8152602060048201526016602482015275115d995b9d08185b1c9958591e481c185a59081bdd5d60521b604482015260640161061e565b6000818152600c60208190526040909120015462010000900460ff1615611fd85760405162461bcd60e51b8152602060048201526016602482015275115d995b9d08185b1c9958591e481c99599d5b99195960521b604482015260640161061e565b6000818152600c60208190526040909120015460ff16156120335760405162461bcd60e51b8152602060048201526015602482015274115d995b9d08185b1c9958591e4819195b195d1959605a1b604482015260640161061e565b61203c816126ef565b6120815760405162461bcd60e51b8152602060048201526016602482015275115d995b9d0819985a5b1959081d1bc81c99599d5b9960521b604482015260640161061e565b6000908152600c6020819052604090912001805460ff19166001179055565b6000818152600460205260409020546001600160a01b0316611e965760405162461bcd60e51b8152602060048201526018602482015277115490cdcc8c4e881a5b9d985b1a59081d1bdad95b88125160421b604482015260640161061e565b600081815260066020526040902080546001600160a01b0319166001600160a01b038416908117909155819061213482610e68565b6001600160a01b03167f8c5be1e5ebec7d5bd14f71427d1e84f3dd0314c0f7b2291e5b200ac8c7c3b92560405160405180910390a45050565b60008061217983610e68565b9050806001600160a01b0316846001600160a01b031614806121a057506121a08185611b67565b806121c45750836001600160a01b03166121b984610583565b6001600160a01b0316145b949350505050565b826001600160a01b03166121df82610e68565b6001600160a01b0316146122055760405162461bcd60e51b815260040161061e906135b4565b6001600160a01b0382166122675760405162461bcd60e51b8152602060048201526024808201527f4552433732313a207472616e7366657220746f20746865207a65726f206164646044820152637265737360e01b606482015260840161061e565b826001600160a01b031661227a82610e68565b6001600160a01b0316146122a05760405162461bcd60e51b815260040161061e906135b4565b600081815260066020908152604080832080546001600160a01b03199081169091556001600160a01b0387811680865260058552838620805460001901905590871680865283862080546001019055868652600490945282852080549092168417909155905184937fddf252ad1be2c89b69c2b068fc378daa952ba7f163c4a11628f55a4df523b3ef91a4505050565b6000546001600160a01b031633146111ed5760405162461bcd60e51b815260206004820181905260248201527f4f776e61626c653a2063616c6c6572206973206e6f7420746865206f776e6572604482015260640161061e565b600080546001600160a01b038381166001600160a01b0319831681178455604051919092169283917f8be0079c531659141344cd1fd0a4f28419497f9722a3daafe3b4186f6b6457e09190a35050565b60006123e8426103e86134f9565b6123f4906103e8613510565b905090565b816001600160a01b0316836001600160a01b03160361245a5760405162461bcd60e51b815260206004820152601960248201527f4552433732313a20617070726f766520746f2063616c6c657200000000000000604482015260640161061e565b6001600160a01b03838116600081815260076020908152604080832094871680845294825291829020805460ff191686151590811790915591519182527f17307eab39ab6107e8899845ad3d59bd9653f200f220920489ca2b5937696c31910160405180910390a3505050565b6124d28484846121cc565b6124de8484848461285f565b6118ba5760405162461bcd60e51b815260040161061e906135f9565b6060600061250783612960565b600101905060008167ffffffffffffffff81111561252757612527612f0a565b6040519080825280601f01601f191660200182016040528015612551576020820181803683370190505b5090508181016020015b600019016f181899199a1a9b1b9c1cb0b131b232b360811b600a86061a8153600a850494508461255b57509392505050565b6000805b6000838152600d6020526040902054811015612665576125b5600980546001019055565b6000838152600d60205260409020805460019190839081106125d9576125d96132dc565b906000526020600020906006020160050160016101000a81548160ff021916908315150217905550612653600d60008581526020019081526020016000208281548110612628576126286132dc565b60009182526020909120600260069092020101546001600160a01b031661264e60095490565b612a38565b8061265d816132c3565b915050612591565b50506000908152600c6020819052604090912001805463ff00000019166301000000179055600190565b6000826001600160a01b03168260405160006040518083038185875af1925050503d80600081146126dc576040519150601f19603f3d011682016040523d82523d6000602084013e6126e1565b606091505b50509050806106bf57600080fd5b6000805b6000838152600d6020526040902054811015612837576000838152600d602052604090208054600191908390811061272d5761272d6132dc565b906000526020600020906006020160050160006101000a81548160ff0219169083151502179055506127dc600d6000858152602001908152602001600020828154811061277c5761277c6132dc565b906000526020600020906006020160020160009054906101000a90046001600160a01b0316600d600086815260200190815260200160002083815481106127c5576127c56132dc565b90600052602060002090600602016003015461268f565b6000838152600d602052604090208054829081106127fc576127fc6132dc565b906000526020600020906006020160030154600a600082825461281f91906135a1565b9091555081905061282f816132c3565b9150506126f3565b50506000908152600c6020819052604090912001805462ff0000191662010000179055600190565b60006001600160a01b0384163b1561295557604051630a85bd0160e11b81526001600160a01b0385169063150b7a02906128a390339089908890889060040161364b565b6020604051808303816000875af19250505080156128de575060408051601f3d908101601f191682019092526128db91810190613688565b60015b61293b573d80801561290c576040519150601f19603f3d011682016040523d82523d6000602084013e612911565b606091505b5080516000036129335760405162461bcd60e51b815260040161061e906135f9565b805181602001fd5b6001600160e01b031916630a85bd0160e11b1490506121c4565b506001949350505050565b60008072184f03e93ff9f4daa797ed6e38ed64bf6a1f0160401b831061299f5772184f03e93ff9f4daa797ed6e38ed64bf6a1f0160401b830492506040015b6d04ee2d6d415b85acef810000000083106129cb576d04ee2d6d415b85acef8100000000830492506020015b662386f26fc1000083106129e957662386f26fc10000830492506010015b6305f5e1008310612a01576305f5e100830492506008015b6127108310612a1557612710830492506004015b60648310612a27576064830492506002015b600a83106104eb5760010192915050565b6001600160a01b038216612a8e5760405162461bcd60e51b815260206004820181905260248201527f4552433732313a206d696e7420746f20746865207a65726f2061646472657373604482015260640161061e565b6000818152600460205260409020546001600160a01b031615612af35760405162461bcd60e51b815260206004820152601c60248201527f4552433732313a20746f6b656e20616c7265616479206d696e74656400000000604482015260640161061e565b6000818152600460205260409020546001600160a01b031615612b585760405162461bcd60e51b815260206004820152601c60248201527f4552433732313a20746f6b656e20616c7265616479206d696e74656400000000604482015260640161061e565b6001600160a01b038216600081815260056020908152604080832080546001019055848352600490915280822080546001600160a01b0319168417905551839291907fddf252ad1be2c89b69c2b068fc378daa952ba7f163c4a11628f55a4df523b3ef908290a45050565b6040518061020001604052806000815260200160608152602001606081526020016060815260200160006001600160a01b03168152602001600081526020016000815260200160008152602001600081526020016000815260200160008152602001600081526020016000151581526020016000151581526020016000151581526020016000151581525090565b6001600160e01b031981168114611e9657600080fd5b600060208284031215612c7957600080fd5b813561192d81612c51565b60005b83811015612c9f578181015183820152602001612c87565b50506000910152565b60008151808452612cc0816020860160208601612c84565b601f01601f19169290920160200192915050565b60208152600061192d6020830184612ca8565b600060208284031215612cf957600080fd5b5035919050565b80356001600160a01b0381168114612d1757600080fd5b919050565b60008060408385031215612d2f57600080fd5b612d3883612d00565b946020939093013593505050565b600080600060608486031215612d5b57600080fd5b612d6484612d00565b9250612d7260208501612d00565b9150604084013590509250925092565b6000610200825184526020830151816020860152612da282860182612ca8565b91505060408301518482036040860152612dbc8282612ca8565b91505060608301518482036060860152612dd68282612ca8565b9150506080830151612df360808601826001600160a01b03169052565b5060a0838101519085015260c0808401519085015260e080840151908501526101008084015190850152610120808401519085015261014080840151908501526101608084015190850152610180808401511515908501526101a0808401511515908501526101c0808401511515908501526101e092830151151592909301919091525090565b6000602080830181845280855180835260408601915060408160051b870101925083870160005b82811015612ecf57603f19888603018452612ebd858351612d82565b94509285019290850190600101612ea1565b5092979650505050505050565b60208152600061192d6020830184612d82565b600060208284031215612f0157600080fd5b61192d82612d00565b634e487b7160e01b600052604160045260246000fd5b600067ffffffffffffffff80841115612f3b57612f3b612f0a565b604051601f8501601f19908116603f01168101908282118183101715612f6357612f63612f0a565b81604052809350858152868686011115612f7c57600080fd5b858560208301376000602087830101525050509392505050565b600082601f830112612fa757600080fd5b61192d83833560208501612f20565b600080600080600080600060e0888a031215612fd157600080fd5b873567ffffffffffffffff80821115612fe957600080fd5b612ff58b838c01612f96565b985060208a013591508082111561300b57600080fd5b6130178b838c01612f96565b975060408a013591508082111561302d57600080fd5b5061303a8a828b01612f96565b979a96995096976060810135975060808101359660a0820135965060c090910135945092505050565b6000806040838503121561307657600080fd5b50508035926020909101359150565b6000806040838503121561309857600080fd5b6130a183612d00565b9150602083013580151581146130b657600080fd5b809150509250929050565b600080600080608085870312156130d757600080fd5b6130e085612d00565b93506130ee60208601612d00565b925060408501359150606085013567ffffffffffffffff81111561311157600080fd5b8501601f8101871361312257600080fd5b61313187823560208401612f20565b91505092959194509250565b6000806040838503121561315057600080fd5b61315983612d00565b915061316760208401612d00565b90509250929050565b600080600080600080600080610100898b03121561318d57600080fd5b88359750602089013567ffffffffffffffff808211156131ac57600080fd5b6131b88c838d01612f96565b985060408b01359150808211156131ce57600080fd5b6131da8c838d01612f96565b975060608b01359150808211156131f057600080fd5b506131fd8b828c01612f96565b989b979a50959860808101359760a0820135975060c0820135965060e090910135945092505050565b600181811c9082168061323a57607f821691505b60208210810361325a57634e487b7160e01b600052602260045260246000fd5b50919050565b6020808252602d908201527f4552433732313a2063616c6c6572206973206e6f7420746f6b656e206f776e6560408201526c1c881bdc88185c1c1c9bdd9959609a1b606082015260800190565b634e487b7160e01b600052601160045260246000fd5b6000600182016132d5576132d56132ad565b5060010190565b634e487b7160e01b600052603260045260246000fd5b60208082526024908201527f5469636b6574436f7374206d7573742062652067726561746572207468616e206040820152637a65726f60e01b606082015260800190565b60208082526024908201527f53746172742064617465206d7573742062652067726561746572207468616e206040820152637a65726f60e01b606082015260800190565b60208082526028908201527f456e642064617465206d7573742062652067726561746572207468616e207374604082015267617274206461746560c01b606082015260800190565b601f8211156106bf57600081815260208120601f850160051c810160208610156133e95750805b601f850160051c820191505b81811015613408578281556001016133f5565b505050505050565b815167ffffffffffffffff81111561342a5761342a612f0a565b61343e816134388454613226565b846133c2565b602080601f831160018114613473576000841561345b5750858301515b600019600386901b1c1916600185901b178555613408565b600085815260208120601f198616915b828110156134a257888601518255948401946001909101908401613483565b50858210156134c05787850151600019600388901b60f8161c191681555b5050505050600190811b01905550565b6020808252600f908201526e115d995b9d081b9bdd08199bdd5b99608a1b604082015260600190565b80820281158282048414176104eb576104eb6132ad565b808201808211156104eb576104eb6132ad565b60008351613535818460208801612c84565b835190830190613549818360208801612c84565b01949350505050565b602080825260139082015272556e617574686f72697a656420656e7469747960681b604082015260600190565b60008261359c57634e487b7160e01b600052601260045260246000fd5b500490565b818103818111156104eb576104eb6132ad565b60208082526025908201527f4552433732313a207472616e736665722066726f6d20696e636f72726563742060408201526437bbb732b960d91b606082015260800190565b60208082526032908201527f4552433732313a207472616e7366657220746f206e6f6e20455243373231526560408201527131b2b4bb32b91034b6b83632b6b2b73a32b960711b606082015260800190565b6001600160a01b038581168252841660208201526040810183905260806060820181905260009061367e90830184612ca8565b9695505050505050565b60006020828403121561369a57600080fd5b815161192d81612c5156fea26469706673582212206cff54dc68225e2e43783e4e3d96e4e34d5239c5018e6502e91e52604ee587e364736f6c63430008110033",
  "linkReferences": {},
  "deployedLinkReferences": {}
}