{
  "_format": "hh-sol-artifact-1",
  "contractName": "DappEventX",
  "sourceName": "contracts/DappEventX.sol",
  "abi": [
    {
      "inputs": [
        {
          "internalType": "uint256",
          "name": "_pct",
          "type": "uint256"
        }
      ],
      "stateMutability": "nonpayable",
      "type": "constructor"
    },
    {
      "anonymous": false,
      "inputs": [
        {
          "indexed": true,
          "internalType": "address",
          "name": "owner",
          "type": "address"
        },
        {
          "indexed": true,
          "internalType": "address",
          "name": "approved",
          "type": "address"
        },
        {
          "indexed": true,
          "internalType": "uint256",
          "name": "tokenId",
          "type": "uint256"
        }
      ],
      "name": "Approval",
      "type": "event"
    },
    {
      "anonymous": false,
      "inputs": [
        {
          "indexed": true,
          "internalType": "address",
          "name": "owner",
          "type": "address"
        },
        {
          "indexed": true,
          "internalType": "address",
          "name": "operator",
          "type": "address"
        },
        {
          "indexed": false,
          "internalType": "bool",
          "name": "approved",
          "type": "bool"
        }
      ],
      "name": "ApprovalForAll",
      "type": "event"
    },
    {
      "anonymous": false,
      "inputs": [
        {
          "indexed": true,
          "internalType": "address",
          "name": "previousOwner",
          "type": "address"
        },
        {
          "indexed": true,
          "internalType": "address",
          "name": "newOwner",
          "type": "address"
        }
      ],
      "name": "OwnershipTransferred",
      "type": "event"
    },
    {
      "anonymous": false,
      "inputs": [
        {
          "indexed": true,
          "internalType": "address",
          "name": "from",
          "type": "address"
        },
        {
          "indexed": true,
          "internalType": "address",
          "name": "to",
          "type": "address"
        },
        {
          "indexed": true,
          "internalType": "uint256",
          "name": "tokenId",
          "type": "uint256"
        }
      ],
      "name": "Transfer",
      "type": "event"
    },
    {
      "inputs": [
        {
          "internalType": "address",
          "name": "to",
          "type": "address"
        },
        {
          "internalType": "uint256",
          "name": "tokenId",
          "type": "uint256"
        }
      ],
      "name": "approve",
      "outputs": [],
      "stateMutability": "nonpayable",
      "type": "function"
    },
    {
      "inputs": [],
      "name": "balance",
      "outputs": [
        {
          "internalType": "uint256",
          "name": "",
          "type": "uint256"
        }
      ],
      "stateMutability": "view",
      "type": "function"
    },
    {
      "inputs": [
        {
          "internalType": "address",
          "name": "owner",
          "type": "address"
        }
      ],
      "name": "balanceOf",
      "outputs": [
        {
          "internalType": "uint256",
          "name": "",
          "type": "uint256"
        }
      ],
      "stateMutability": "view",
      "type": "function"
    },
    {
      "inputs": [
        {
          "internalType": "uint256",
          "name": "eventId",
          "type": "uint256"
        },
        {
          "internalType": "uint256",
          "name": "numOfticket",
          "type": "uint256"
        }
      ],
      "name": "buyTickets",
      "outputs": [],
      "stateMutability": "payable",
      "type": "function"
    },
    {
      "inputs": [
        {
          "internalType": "string",
          "name": "title",
          "type": "string"
        },
        {
          "internalType": "string",
          "name": "description",
          "type": "string"
        },
        {
          "internalType": "string",
          "name": "imageUrl",
          "type": "string"
        },
        {
          "internalType": "uint256",
          "name": "capacity",
          "type": "uint256"
        },
        {
          "internalType": "uint256",
          "name": "ticketCost",
          "type": "uint256"
        },
        {
          "internalType": "uint256",
          "name": "startsAt",
          "type": "uint256"
        },
        {
          "internalType": "uint256",
          "name": "endsAt",
          "type": "uint256"
        }
      ],
      "name": "createEvent",
      "outputs": [],
      "stateMutability": "nonpayable",
      "type": "function"
    },
    {
      "inputs": [
        {
          "internalType": "uint256",
          "name": "eventId",
          "type": "uint256"
        }
      ],
      "name": "deleteEvent",
      "outputs": [],
      "stateMutability": "nonpayable",
      "type": "function"
    },
    {
      "inputs": [
        {
          "internalType": "uint256",
          "name": "tokenId",
          "type": "uint256"
        }
      ],
      "name": "getApproved",
      "outputs": [
        {
          "internalType": "address",
          "name": "",
          "type": "address"
        }
      ],
      "stateMutability": "view",
      "type": "function"
    },
    {
      "inputs": [],
      "name": "getEvents",
      "outputs": [
        {
          "components": [
            {
              "internalType": "uint256",
              "name": "id",
              "type": "uint256"
            },
            {
              "internalType": "string",
              "name": "title",
              "type": "string"
            },
            {
              "internalType": "string",
              "name": "imageUrl",
              "type": "string"
            },
            {
              "internalType": "string",
              "name": "description",
              "type": "string"
            },
            {
              "internalType": "address",
              "name": "owner",
              "type": "address"
            },
            {
              "internalType": "uint256",
              "name": "sales",
              "type": "uint256"
            },
            {
              "internalType": "uint256",
              "name": "ticketCost",
              "type": "uint256"
            },
            {
              "internalType": "uint256",
              "name": "capacity",
              "type": "uint256"
            },
            {
              "internalType": "uint256",
              "name": "seats",
              "type": "uint256"
            },
            {
              "internalType": "uint256",
              "name": "startsAt",
              "type": "uint256"
            },
            {
              "internalType": "uint256",
              "name": "endsAt",
              "type": "uint256"
            },
            {
              "internalType": "uint256",
              "name": "timestamp",
              "type": "uint256"
            },
            {
              "internalType": "bool",
              "name": "deleted",
              "type": "bool"
            },
            {
              "internalType": "bool",
              "name": "paidOut",
              "type": "bool"
            },
            {
              "internalType": "bool",
              "name": "refunded",
              "type": "bool"
            },
            {
              "internalType": "bool",
              "name": "minted",
              "type": "bool"
            }
          ],
          "internalType": "struct DappEventX.EventStruct[]",
          "name": "Events",
          "type": "tuple[]"
        }
      ],
      "stateMutability": "view",
      "type": "function"
    },
    {
      "inputs": [],
      "name": "getMyEvents",
      "outputs": [
        {
          "components": [
            {
              "internalType": "uint256",
              "name": "id",
              "type": "uint256"
            },
            {
              "internalType": "string",
              "name": "title",
              "type": "string"
            },
            {
              "internalType": "string",
              "name": "imageUrl",
              "type": "string"
            },
            {
              "internalType": "string",
              "name": "description",
              "type": "string"
            },
            {
              "internalType": "address",
              "name": "owner",
              "type": "address"
            },
            {
              "internalType": "uint256",
              "name": "sales",
              "type": "uint256"
            },
            {
              "internalType": "uint256",
              "name": "ticketCost",
              "type": "uint256"
            },
            {
              "internalType": "uint256",
              "name": "capacity",
              "type": "uint256"
            },
            {
              "internalType": "uint256",
              "name": "seats",
              "type": "uint256"
            },
            {
              "internalType": "uint256",
              "name": "startsAt",
              "type": "uint256"
            },
            {
              "internalType": "uint256",
              "name": "endsAt",
              "type": "uint256"
            },
            {
              "internalType": "uint256",
              "name": "timestamp",
              "type": "uint256"
            },
            {
              "internalType": "bool",
              "name": "deleted",
              "type": "bool"
            },
            {
              "internalType": "bool",
              "name": "paidOut",
              "type": "bool"
            },
            {
              "internalType": "bool",
              "name": "refunded",
              "type": "bool"
            },
            {
              "internalType": "bool",
              "name": "minted",
              "type": "bool"
            }
          ],
          "internalType": "struct DappEventX.EventStruct[]",
          "name": "Events",
          "type": "tuple[]"
        }
      ],
      "stateMutability": "view",
      "type": "function"
    },
    {
      "inputs": [
        {
          "internalType": "uint256",
          "name": "eventId",
          "type": "uint256"
        }
      ],
      "name": "getSingleEvent",
      "outputs": [
        {
          "components": [
            {
              "internalType": "uint256",
              "name": "id",
              "type": "uint256"
            },
            {
              "internalType": "string",
              "name": "title",
              "type": "string"
            },
            {
              "internalType": "string",
              "name": "imageUrl",
              "type": "string"
            },
            {
              "internalType": "string",
              "name": "description",
              "type": "string"
            },
            {
              "internalType": "address",
              "name": "owner",
              "type": "address"
            },
            {
              "internalType": "uint256",
              "name": "sales",
              "type": "uint256"
            },
            {
              "internalType": "uint256",
              "name": "ticketCost",
              "type": "uint256"
            },
            {
              "internalType": "uint256",
              "name": "capacity",
              "type": "uint256"
            },
            {
              "internalType": "uint256",
              "name": "seats",
              "type": "uint256"
            },
            {
              "internalType": "uint256",
              "name": "startsAt",
              "type": "uint256"
            },
            {
              "internalType": "uint256",
              "name": "endsAt",
              "type": "uint256"
            },
            {
              "internalType": "uint256",
              "name": "timestamp",
              "type": "uint256"
            },
            {
              "internalType": "bool",
              "name": "deleted",
              "type": "bool"
            },
            {
              "internalType": "bool",
              "name": "paidOut",
              "type": "bool"
            },
            {
              "internalType": "bool",
              "name": "refunded",
              "type": "bool"
            },
            {
              "internalType": "bool",
              "name": "minted",
              "type": "bool"
            }
          ],
          "internalType": "struct DappEventX.EventStruct",
          "name": "",
          "type": "tuple"
        }
      ],
      "stateMutability": "view",
      "type": "function"
    },
    {
      "inputs": [
        {
          "internalType": "uint256",
          "name": "eventId",
          "type": "uint256"
        }
      ],
      "name": "getTickets",
      "outputs": [
        {
          "components": [
            {
              "internalType": "uint256",
              "name": "id",
              "type": "uint256"
            },
            {
              "internalType": "uint256",
              "name": "eventId",
              "type": "uint256"
            },
            {
              "internalType": "address",
              "name": "owner",
              "type": "address"
            },
            {
              "internalType": "uint256",
              "name": "ticketCost",
              "type": "uint256"
            },
            {
              "internalType": "uint256",
              "name": "timestamp",
              "type": "uint256"
            },
            {
              "internalType": "bool",
              "name": "refunded",
              "type": "bool"
            },
            {
              "internalType": "bool",
              "name": "minted",
              "type": "bool"
            }
          ],
          "internalType": "struct DappEventX.TicketStruct[]",
          "name": "",
          "type": "tuple[]"
        }
      ],
      "stateMutability": "view",
      "type": "function"
    },
    {
      "inputs": [
        {
          "internalType": "address",
          "name": "owner",
          "type": "address"
        },
        {
          "internalType": "address",
          "name": "operator",
          "type": "address"
        }
      ],
      "name": "isApprovedForAll",
      "outputs": [
        {
          "internalType": "bool",
          "name": "",
          "type": "bool"
        }
      ],
      "stateMutability": "view",
      "type": "function"
    },
    {
      "inputs": [],
      "name": "name",
      "outputs": [
        {
          "internalType": "string",
          "name": "",
          "type": "string"
        }
      ],
      "stateMutability": "view",
      "type": "function"
    },
    {
      "inputs": [],
      "name": "owner",
      "outputs": [
        {
          "internalType": "address",
          "name": "",
          "type": "address"
        }
      ],
      "stateMutability": "view",
      "type": "function"
    },
    {
      "inputs": [
        {
          "internalType": "uint256",
          "name": "tokenId",
          "type": "uint256"
        }
      ],
      "name": "ownerOf",
      "outputs": [
        {
          "internalType": "address",
          "name": "",
          "type": "address"
        }
      ],
      "stateMutability": "view",
      "type": "function"
    },
    {
      "inputs": [
        {
          "internalType": "uint256",
          "name": "eventId",
          "type": "uint256"
        }
      ],
      "name": "payout",
      "outputs": [],
      "stateMutability": "nonpayable",
      "type": "function"
    },
    {
      "inputs": [],
      "name": "renounceOwnership",
      "outputs": [],
      "stateMutability": "nonpayable",
      "type": "function"
    },
    {
      "inputs": [
        {
          "internalType": "address",
          "name": "from",
          "type": "address"
        },
        {
          "internalType": "address",
          "name": "to",
          "type": "address"
        },
        {
          "internalType": "uint256",
          "name": "tokenId",
          "type": "uint256"
        }
      ],
      "name": "safeTransferFrom",
      "outputs": [],
      "stateMutability": "nonpayable",
      "type": "function"
    },
    {
      "inputs": [
        {
          "internalType": "address",
          "name": "from",
          "type": "address"
        },
        {
          "internalType": "address",
          "name": "to",
          "type": "address"
        },
        {
          "internalType": "uint256",
          "name": "tokenId",
          "type": "uint256"
        },
        {
          "internalType": "bytes",
          "name": "data",
          "type": "bytes"
        }
      ],
      "name": "safeTransferFrom",
      "outputs": [],
      "stateMutability": "nonpayable",
      "type": "function"
    },
    {
      "inputs": [
        {
          "internalType": "address",
          "name": "operator",
          "type": "address"
        },
        {
          "internalType": "bool",
          "name": "approved",
          "type": "bool"
        }
      ],
      "name": "setApprovalForAll",
      "outputs": [],
      "stateMutability": "nonpayable",
      "type": "function"
    },
    {
      "inputs": [
        {
          "internalType": "bytes4",
          "name": "interfaceId",
          "type": "bytes4"
        }
      ],
      "name": "supportsInterface",
      "outputs": [
        {
          "internalType": "bool",
          "name": "",
          "type": "bool"
        }
      ],
      "stateMutability": "view",
      "type": "function"
    },
    {
      "inputs": [],
      "name": "symbol",
      "outputs": [
        {
          "internalType": "string",
          "name": "",
          "type": "string"
        }
      ],
      "stateMutability": "view",
      "type": "function"
    },
    {
      "inputs": [
        {
          "internalType": "uint256",
          "name": "tokenId",
          "type": "uint256"
        }
      ],
      "name": "tokenURI",
      "outputs": [
        {
          "internalType": "string",
          "name": "",
          "type": "string"
        }
      ],
      "stateMutability": "view",
      "type": "function"
    },
    {
      "inputs": [
        {
          "internalType": "address",
          "name": "from",
          "type": "address"
        },
        {
          "internalType": "address",
          "name": "to",
          "type": "address"
        },
        {
          "internalType": "uint256",
          "name": "tokenId",
          "type": "uint256"
        }
      ],
      "name": "transferFrom",
      "outputs": [],
      "stateMutability": "nonpayable",
      "type": "function"
    },
    {
      "inputs": [
        {
          "internalType": "address",
          "name": "newOwner",
          "type": "address"
        }
      ],
      "name": "transferOwnership",
      "outputs": [],
      "stateMutability": "nonpayable",
      "type": "function"
    },
    {
      "inputs": [
        {
          "internalType": "uint256",
          "name": "eventId",
          "type": "uint256"
        },
        {
          "internalType": "string",
          "name": "title",
          "type": "string"
        },
        {
          "internalType": "string",
          "name": "description",
          "type": "string"
        },
        {
          "internalType": "string",
          "name": "imageUrl",
          "type": "string"
        },
        {
          "internalType": "uint256",
          "name": "capacity",
          "type": "uint256"
        },
        {
          "internalType": "uint256",
          "name": "ticketCost",
          "type": "uint256"
        },
        {
          "internalType": "uint256",
          "name": "startsAt",
          "type": "uint256"
        },
        {
          "internalType": "uint256",
          "name": "endsAt",
          "type": "uint256"
        }
      ],
      "name": "updateEvent",
      "outputs": [],
      "stateMutability": "nonpayable",
      "type": "function"
    }
  ],
  "bytecode": "0x60806040523480156200001157600080fd5b5060405162003ea738038062003ea783398101604081905262000034916200010b565b6040518060400160405280600781526020016608aeccadce840b60cb1b8152506040518060400160405280600381526020016208aa8b60eb1b8152506200008a62000084620000b760201b60201c565b620000bb565b6001805560026200009c8382620001ca565b506003620000ab8282620001ca565b505050600b5562000296565b3390565b600080546001600160a01b038381166001600160a01b0319831681178455604051919092169283917f8be0079c531659141344cd1fd0a4f28419497f9722a3daafe3b4186f6b6457e09190a35050565b6000602082840312156200011e57600080fd5b5051919050565b634e487b7160e01b600052604160045260246000fd5b600181811c908216806200015057607f821691505b6020821081036200017157634e487b7160e01b600052602260045260246000fd5b50919050565b601f821115620001c557600081815260208120601f850160051c81016020861015620001a05750805b601f850160051c820191505b81811015620001c157828155600101620001ac565b5050505b505050565b81516001600160401b03811115620001e657620001e662000125565b620001fe81620001f784546200013b565b8462000177565b602080601f8311600181146200023657600084156200021d5750858301515b600019600386901b1c1916600185901b178555620001c1565b600085815260208120601f198616915b82811015620002675788860151825594840194600190910190840162000246565b5085821015620002865787850151600019600388901b60f8161c191681555b5050505050600190811b01905550565b613c0180620002a66000396000f3fe6080604052600436106101815760003560e01c8063835e489f116100d1578063b88d4fde1161008a578063e985e9c511610064578063e985e9c514610467578063ead6d0dd14610487578063f2fde38b146104a7578063f8749a58146104c757600080fd5b8063b88d4fde14610407578063c87b56dd14610427578063e11523431461044757600080fd5b8063835e489f1461036b5780638627df461461038b5780638da5cb5b1461039e57806395d89b41146103bc578063a22cb465146103d1578063b69ef8a8146103f157600080fd5b806323b872dd1161013e57806342842e0e1161011857806342842e0e146102e85780636352211e1461030857806370a0823114610328578063715018a61461035657600080fd5b806323b872dd146102915780633548124b146102b1578063404aa8f9146102d357600080fd5b806301ffc9a71461018657806306fdde03146101bb578063071843aa146101dd578063081812fc1461020a578063095ea7b31461024257806314f2979f14610264575b600080fd5b34801561019257600080fd5b506101a66101a13660046130bc565b6104e7565b60405190151581526020015b60405180910390f35b3480156101c757600080fd5b506101d0610539565b6040516101b29190613129565b3480156101e957600080fd5b506101fd6101f836600461313c565b6105cb565b6040516101b2919061324d565b34801561021657600080fd5b5061022a61022536600461313c565b610858565b6040516001600160a01b0390911681526020016101b2565b34801561024e57600080fd5b5061026261025d36600461327c565b61087f565b005b34801561027057600080fd5b5061028461027f36600461313c565b610999565b6040516101b291906132a6565b34801561029d57600080fd5b506102626102ac366004613335565b610a5f565b3480156102bd57600080fd5b506102c6610a90565b6040516101b29190613371565b3480156102df57600080fd5b506102c6610e66565b3480156102f457600080fd5b50610262610303366004613335565b6111e8565b34801561031457600080fd5b5061022a61032336600461313c565b611203565b34801561033457600080fd5b506103486103433660046133d3565b611263565b6040519081526020016101b2565b34801561036257600080fd5b506102626112e9565b34801561037757600080fd5b5061026261038636600461349a565b6112fd565b610262610399366004613547565b611618565b3480156103aa57600080fd5b506000546001600160a01b031661022a565b3480156103c857600080fd5b506101d0611904565b3480156103dd57600080fd5b506102626103ec366004613569565b611913565b3480156103fd57600080fd5b50610348600a5481565b34801561041357600080fd5b506102626104223660046135a5565b611922565b34801561043357600080fd5b506101d061044236600461313c565b61195a565b34801561045357600080fd5b5061026261046236600461313c565b6119ce565b34801561047357600080fd5b506101a6610482366004613621565b611c1b565b34801561049357600080fd5b506102626104a2366004613654565b611c49565b3480156104b357600080fd5b506102626104c23660046133d3565b612268565b3480156104d357600080fd5b506102626104e236600461313c565b6122e1565b60006001600160e01b031982166380ac58cd60e01b148061051857506001600160e01b03198216635b5e139f60e01b145b8061053357506301ffc9a760e01b6001600160e01b03198316145b92915050565b6060600280546105489061370a565b80601f01602080910402602001604051908101604052809291908181526020018280546105749061370a565b80156105c15780601f10610596576101008083540402835291602001916105c1565b820191906000526020600020905b8154815290600101906020018083116105a457829003601f168201915b5050505050905090565b6105d3613018565b600c6000838152602001908152602001600020604051806102000160405290816000820154815260200160018201805461060c9061370a565b80601f01602080910402602001604051908101604052809291908181526020018280546106389061370a565b80156106855780601f1061065a57610100808354040283529160200191610685565b820191906000526020600020905b81548152906001019060200180831161066857829003601f168201915b5050505050815260200160028201805461069e9061370a565b80601f01602080910402602001604051908101604052809291908181526020018280546106ca9061370a565b80156107175780601f106106ec57610100808354040283529160200191610717565b820191906000526020600020905b8154815290600101906020018083116106fa57829003601f168201915b505050505081526020016003820180546107309061370a565b80601f016020809104026020016040519081016040528092919081815260200182805461075c9061370a565b80156107a95780601f1061077e576101008083540402835291602001916107a9565b820191906000526020600020905b81548152906001019060200180831161078c57829003601f168201915b505050918352505060048201546001600160a01b03166020820152600582015460408201526006820154606082015260078201546080820152600882015460a0820152600982015460c0820152600a82015460e0820152600b82015461010080830191909152600c9092015460ff808216151561012084015292810483161515610140830152620100008104831615156101608301526301000000900490911615156101809091015292915050565b60006108638261249b565b506000908152600660205260409020546001600160a01b031690565b600061088a82611203565b9050806001600160a01b0316836001600160a01b0316036108fc5760405162461bcd60e51b815260206004820152602160248201527f4552433732313a20617070726f76616c20746f2063757272656e74206f776e656044820152603960f91b60648201526084015b60405180910390fd5b336001600160a01b038216148061091857506109188133611c1b565b61098a5760405162461bcd60e51b815260206004820152603d60248201527f4552433732313a20617070726f76652063616c6c6572206973206e6f7420746f60448201527f6b656e206f776e6572206f7220617070726f76656420666f7220616c6c00000060648201526084016108f3565b61099483836124fa565b505050565b6060600d6000838152602001908152602001600020805480602002602001604051908101604052809291908181526020016000905b82821015610a545760008481526020908190206040805160e08101825260068602909201805483526001808201548486015260028201546001600160a01b03169284019290925260038101546060840152600481015460808401526005015460ff808216151560a085015261010090910416151560c083015290835290920191016109ce565b505050509050919050565b610a693382612568565b610a855760405162461bcd60e51b81526004016108f390613744565b6109948383836125c7565b6060600060015b6008548111610b01576000818152600c60208190526040909120015460ff16158015610adc57506000818152600c60205260409020600401546001600160a01b031633145b15610aef5781610aeb816137a7565b9250505b80610af9816137a7565b915050610a97565b508067ffffffffffffffff811115610b1b57610b1b6133ee565b604051908082528060200260200182016040528015610b5457816020015b610b41613018565b815260200190600190039081610b395790505b509150600060015b6008548111610e60576000818152600c60208190526040909120015460ff16158015610ba157506000818152600c60205260409020600401546001600160a01b031633145b15610e4e57600c60008281526020019081526020016000206040518061020001604052908160008201548152602001600182018054610bdf9061370a565b80601f0160208091040260200160405190810160405280929190818152602001828054610c0b9061370a565b8015610c585780601f10610c2d57610100808354040283529160200191610c58565b820191906000526020600020905b815481529060010190602001808311610c3b57829003601f168201915b50505050508152602001600282018054610c719061370a565b80601f0160208091040260200160405190810160405280929190818152602001828054610c9d9061370a565b8015610cea5780601f10610cbf57610100808354040283529160200191610cea565b820191906000526020600020905b815481529060010190602001808311610ccd57829003601f168201915b50505050508152602001600382018054610d039061370a565b80601f0160208091040260200160405190810160405280929190818152602001828054610d2f9061370a565b8015610d7c5780601f10610d5157610100808354040283529160200191610d7c565b820191906000526020600020905b815481529060010190602001808311610d5f57829003601f168201915b505050918352505060048201546001600160a01b03166020820152600582015460408201526006820154606082015260078201546080820152600882015460a0820152600982015460c0820152600a82015460e0820152600b82015461010080830191909152600c9092015460ff80821615156101208401529281048316151561014083015262010000810483161515610160830152630100000090049091161515610180909101528483610e30816137a7565b945081518110610e4257610e426137c0565b60200260200101819052505b80610e58816137a7565b915050610b5c565b50505090565b6060600060015b6008548111610eb0576000818152600c60208190526040909120015460ff16610e9e5781610e9a816137a7565b9250505b80610ea8816137a7565b915050610e6d565b508067ffffffffffffffff811115610eca57610eca6133ee565b604051908082528060200260200182016040528015610f0357816020015b610ef0613018565b815260200190600190039081610ee85790505b509150600060015b6008548111610e60576000818152600c60208190526040909120015460ff166111d657600c60008281526020019081526020016000206040518061020001604052908160008201548152602001600182018054610f679061370a565b80601f0160208091040260200160405190810160405280929190818152602001828054610f939061370a565b8015610fe05780601f10610fb557610100808354040283529160200191610fe0565b820191906000526020600020905b815481529060010190602001808311610fc357829003601f168201915b50505050508152602001600282018054610ff99061370a565b80601f01602080910402602001604051908101604052809291908181526020018280546110259061370a565b80156110725780601f1061104757610100808354040283529160200191611072565b820191906000526020600020905b81548152906001019060200180831161105557829003601f168201915b5050505050815260200160038201805461108b9061370a565b80601f01602080910402602001604051908101604052809291908181526020018280546110b79061370a565b80156111045780601f106110d957610100808354040283529160200191611104565b820191906000526020600020905b8154815290600101906020018083116110e757829003601f168201915b505050918352505060048201546001600160a01b03166020820152600582015460408201526006820154606082015260078201546080820152600882015460a0820152600982015460c0820152600a82015460e0820152600b82015461010080830191909152600c9092015460ff808216151561012084015292810483161515610140830152620100008104831615156101608301526301000000900490911615156101809091015284836111b8816137a7565b9450815181106111ca576111ca6137c0565b60200260200101819052505b806111e0816137a7565b915050610f0b565b61099483838360405180602001604052806000815250611922565b6000818152600460205260408120546001600160a01b0316806105335760405162461bcd60e51b8152602060048201526018602482015277115490cdcc8c4e881a5b9d985b1a59081d1bdad95b88125160421b60448201526064016108f3565b60006001600160a01b0382166112cd5760405162461bcd60e51b815260206004820152602960248201527f4552433732313a2061646472657373207a65726f206973206e6f7420612076616044820152683634b21037bbb732b960b91b60648201526084016108f3565b506001600160a01b031660009081526005602052604090205490565b6112f161272b565b6112fb6000612785565b565b6000831161131d5760405162461bcd60e51b81526004016108f3906137d6565b6000841161133d5760405162461bcd60e51b81526004016108f39061381a565b60008751116113865760405162461bcd60e51b81526020600482015260156024820152745469746c652063616e6e6f7420626520656d70747960581b60448201526064016108f3565b60008651116113d75760405162461bcd60e51b815260206004820152601b60248201527f4465736372697074696f6e2063616e6e6f7420626520656d707479000000000060448201526064016108f3565b60008551116114235760405162461bcd60e51b8152602060048201526018602482015277496d61676555726c2063616e6e6f7420626520656d70747960401b60448201526064016108f3565b600082116114435760405162461bcd60e51b81526004016108f39061385c565b8181116114625760405162461bcd60e51b81526004016108f3906138a0565b611470600880546001019055565b611478613018565b600854815260208101889052606081018790526040810186905260e0810185905260c08101849052610120810183905261014081018290523360808201526114be6127d5565b61016082015280516000908152600e60209081526040808320805460ff1916600190811790915584518452600c83529220835181559083015183928201906115069082613936565b506040820151600282019061151b9082613936565b50606082015160038201906115309082613936565b5060808201516004820180546001600160a01b0319166001600160a01b0390921691909117905560a0820151600582015560c0820151600682015560e082015160078201556101008083015160088301556101208301516009830155610140830151600a830155610160830151600b830155610180830151600c90920180546101a08501516101c08601516101e09096015161ffff1990921694151561ff001916949094179315159092029290921763ffff00001916620100009315159390930263ff0000001916929092176301000000921515929092029190911790555050505050505050565b6000828152600e602052604090205460ff166116465760405162461bcd60e51b81526004016108f3906139f6565b600081118015611657575060038111155b6116a35760405162461bcd60e51b815260206004820152601b60248201527f4e756d4f667469636b6574206d757374206265202831202d203329000000000060448201526064016108f3565b6000828152600c60205260409020600601546116bf9082613a1f565b3410156117045760405162461bcd60e51b8152602060048201526013602482015272125b9cdd59999a58da595b9d08185b5bdd5b9d606a1b60448201526064016108f3565b6000828152600c602052604090206007810154600890910154611728908390613a36565b11156117765760405162461bcd60e51b815260206004820152601760248201527f4f7574206f662073656174696e6720636170616369747900000000000000000060448201526064016108f3565b60005b818110156118c0576117ce6040518060e00160405280600081526020016000815260200160006001600160a01b0316815260200160008152602001600081526020016000151581526020016000151581525090565b6000848152600d602090815260408083205484528382018790523384820152868352600c90915290206006015460608201526118086127d5565b608082019081526000858152600d6020908152604080832080546001818101835591855293839020865160069095020193845591850151918301919091558301516002820180546001600160a01b039092166001600160a01b0319909216919091179055606083015160038201559051600482015560a08201516005909101805460c09093015115156101000261ff00199215159290921661ffff1990931692909217179055806118b8816137a7565b915050611779565b506000828152600c6020526040812060080180548392906118e2908490613a36565b9250508190555034600a60008282546118fb9190613a36565b90915550505050565b6060600380546105489061370a565b61191e3383836127f4565b5050565b61192c3383612568565b6119485760405162461bcd60e51b81526004016108f390613744565b611954848484846128c2565b50505050565b60606119658261249b565b600061197c60408051602081019091526000815290565b9050600081511161199c57604051806020016040528060008152506119c7565b806119a6846128f5565b6040516020016119b7929190613a49565b6040516020818303038152906040525b9392505050565b6000818152600e602052604090205460ff166119fc5760405162461bcd60e51b81526004016108f3906139f6565b6000818152600c602081905260409091200154610100900460ff1615611a5d5760405162461bcd60e51b8152602060048201526016602482015275115d995b9d08185b1c9958591e481c185a59081bdd5d60521b60448201526064016108f3565b6000818152600c60205260409020600a0154611a776127d5565b11611aba5760405162461bcd60e51b81526020600482015260136024820152724576656e74207374696c6c206f6e676f696e6760681b60448201526064016108f3565b6000818152600c60205260409020600401546001600160a01b0316331480611aec57506000546001600160a01b031633145b611b085760405162461bcd60e51b81526004016108f390613a78565b611b1181612988565b611b545760405162461bcd60e51b8152602060048201526014602482015273115d995b9d0819985a5b1959081d1bc81b5a5b9d60621b60448201526064016108f3565b6000818152600c602052604081206008810154600690910154611b779190613a1f565b905060006064600b5483611b8b9190613a1f565b611b959190613aa5565b6000848152600c6020526040902060040154909150611bc6906001600160a01b0316611bc18385613ac7565b612a8a565b611be1611bdb6000546001600160a01b031690565b82612a8a565b6000838152600c60208190526040822001805461ff001916610100179055600a8054849290611c11908490613ac7565b9091555050505050565b6001600160a01b03918216600090815260076020908152604080832093909416825291909152205460ff1690565b6000888152600e602052604090205460ff16611c775760405162461bcd60e51b81526004016108f3906139f6565b6000888152600c60205260409020600401546001600160a01b03163314611cb05760405162461bcd60e51b81526004016108f390613a78565b60008311611cd05760405162461bcd60e51b81526004016108f3906137d6565b60008411611cf05760405162461bcd60e51b81526004016108f39061381a565b6000875111611d395760405162461bcd60e51b81526020600482015260156024820152745469746c652063616e6e6f7420626520656d70747960581b60448201526064016108f3565b6000865111611d8a5760405162461bcd60e51b815260206004820152601b60248201527f4465736372697074696f6e2063616e6e6f7420626520656d707479000000000060448201526064016108f3565b6000855111611dd65760405162461bcd60e51b8152602060048201526018602482015277496d61676555726c2063616e6e6f7420626520656d70747960401b60448201526064016108f3565b60008211611df65760405162461bcd60e51b81526004016108f39061385c565b818111611e155760405162461bcd60e51b81526004016108f3906138a0565b6000600c60008a81526020019081526020016000206040518061020001604052908160008201548152602001600182018054611e509061370a565b80601f0160208091040260200160405190810160405280929190818152602001828054611e7c9061370a565b8015611ec95780601f10611e9e57610100808354040283529160200191611ec9565b820191906000526020600020905b815481529060010190602001808311611eac57829003601f168201915b50505050508152602001600282018054611ee29061370a565b80601f0160208091040260200160405190810160405280929190818152602001828054611f0e9061370a565b8015611f5b5780601f10611f3057610100808354040283529160200191611f5b565b820191906000526020600020905b815481529060010190602001808311611f3e57829003601f168201915b50505050508152602001600382018054611f749061370a565b80601f0160208091040260200160405190810160405280929190818152602001828054611fa09061370a565b8015611fed5780601f10611fc257610100808354040283529160200191611fed565b820191906000526020600020905b815481529060010190602001808311611fd057829003601f168201915b505050505081526020016004820160009054906101000a90046001600160a01b03166001600160a01b03166001600160a01b031681526020016005820154815260200160068201548152602001600782015481526020016008820154815260200160098201548152602001600a8201548152602001600b8201548152602001600c820160009054906101000a900460ff16151515158152602001600c820160019054906101000a900460ff16151515158152602001600c820160029054906101000a900460ff16151515158152602001600c820160039054906101000a900460ff1615151515815250509050878160200181905250868160600181905250858160400181905250848160e0018181525050838160c00181815250508281610120018181525050818161014001818152505080600c6000836000015181526020019081526020016000206000820151816000015560208201518160010190816121559190613936565b506040820151600282019061216a9082613936565b506060820151600382019061217f9082613936565b5060808201516004820180546001600160a01b0319166001600160a01b0390921691909117905560a0820151600582015560c0820151600682015560e082015160078201556101008083015160088301556101208301516009830155610140830151600a830155610160830151600b830155610180830151600c90920180546101a08501516101c08601516101e09096015161ffff1990921694151561ff001916949094179315159092029290921763ffff00001916620100009315159390930263ff000000191692909217630100000092151592909202919091179055505050505050505050565b61227061272b565b6001600160a01b0381166122d55760405162461bcd60e51b815260206004820152602660248201527f4f776e61626c653a206e6577206f776e657220697320746865207a65726f206160448201526564647265737360d01b60648201526084016108f3565b6122de81612785565b50565b6122e9612aea565b6000818152600e602052604090205460ff166123175760405162461bcd60e51b81526004016108f3906139f6565b6000818152600c60205260409020600401546001600160a01b031633148061234957506000546001600160a01b031633145b6123655760405162461bcd60e51b81526004016108f390613a78565b6000818152600c602081905260409091200154610100900460ff16156123c65760405162461bcd60e51b8152602060048201526016602482015275115d995b9d08185b1c9958591e481c185a59081bdd5d60521b60448201526064016108f3565b6000818152600c60208190526040909120015462010000900460ff16156124285760405162461bcd60e51b8152602060048201526016602482015275115d995b9d08185b1c9958591e481c99599d5b99195960521b60448201526064016108f3565b61243181612b43565b6124755760405162461bcd60e51b8152602060048201526015602482015274115d995b9d0819985a5b19081d1bc81c99599d5b99605a1b60448201526064016108f3565b6000818152600c6020819052604090912001805460ff191660011790556122de60018055565b6000818152600460205260409020546001600160a01b03166122de5760405162461bcd60e51b8152602060048201526018602482015277115490cdcc8c4e881a5b9d985b1a59081d1bdad95b88125160421b60448201526064016108f3565b600081815260066020526040902080546001600160a01b0319166001600160a01b038416908117909155819061252f82611203565b6001600160a01b03167f8c5be1e5ebec7d5bd14f71427d1e84f3dd0314c0f7b2291e5b200ac8c7c3b92560405160405180910390a45050565b60008061257483611203565b9050806001600160a01b0316846001600160a01b0316148061259b575061259b8185611c1b565b806125bf5750836001600160a01b03166125b484610858565b6001600160a01b0316145b949350505050565b826001600160a01b03166125da82611203565b6001600160a01b0316146126005760405162461bcd60e51b81526004016108f390613ada565b6001600160a01b0382166126625760405162461bcd60e51b8152602060048201526024808201527f4552433732313a207472616e7366657220746f20746865207a65726f206164646044820152637265737360e01b60648201526084016108f3565b826001600160a01b031661267582611203565b6001600160a01b03161461269b5760405162461bcd60e51b81526004016108f390613ada565b600081815260066020908152604080832080546001600160a01b03199081169091556001600160a01b0387811680865260058552838620805460001901905590871680865283862080546001019055868652600490945282852080549092168417909155905184937fddf252ad1be2c89b69c2b068fc378daa952ba7f163c4a11628f55a4df523b3ef91a4505050565b6000546001600160a01b031633146112fb5760405162461bcd60e51b815260206004820181905260248201527f4f776e61626c653a2063616c6c6572206973206e6f7420746865206f776e657260448201526064016108f3565b600080546001600160a01b038381166001600160a01b0319831681178455604051919092169283917f8be0079c531659141344cd1fd0a4f28419497f9722a3daafe3b4186f6b6457e09190a35050565b60006127e3426103e8613a1f565b6127ef906103e8613a36565b905090565b816001600160a01b0316836001600160a01b0316036128555760405162461bcd60e51b815260206004820152601960248201527f4552433732313a20617070726f766520746f2063616c6c65720000000000000060448201526064016108f3565b6001600160a01b03838116600081815260076020908152604080832094871680845294825291829020805460ff191686151590811790915591519182527f17307eab39ab6107e8899845ad3d59bd9653f200f220920489ca2b5937696c31910160405180910390a3505050565b6128cd8484846125c7565b6128d984848484612cb4565b6119545760405162461bcd60e51b81526004016108f390613b1f565b6060600061290283612db5565b600101905060008167ffffffffffffffff811115612922576129226133ee565b6040519080825280601f01601f19166020018201604052801561294c576020820181803683370190505b5090508181016020015b600019016f181899199a1a9b1b9c1cb0b131b232b360811b600a86061a8153600a850494508461295657509392505050565b6000805b6000838152600d6020526040902054811015612a60576129b0600980546001019055565b6000838152600d60205260409020805460019190839081106129d4576129d46137c0565b906000526020600020906006020160050160016101000a81548160ff021916908315150217905550612a4e600d60008581526020019081526020016000208281548110612a2357612a236137c0565b60009182526020909120600260069092020101546001600160a01b0316612a4960095490565b612e8d565b80612a58816137a7565b91505061298c565b50506000908152600c6020819052604090912001805463ff00000019166301000000179055600190565b6000826001600160a01b03168260405160006040518083038185875af1925050503d8060008114612ad7576040519150601f19603f3d011682016040523d82523d6000602084013e612adc565b606091505b505090508061099457600080fd5b600260015403612b3c5760405162461bcd60e51b815260206004820152601f60248201527f5265656e7472616e637947756172643a207265656e7472616e742063616c6c0060448201526064016108f3565b6002600155565b6000805b6000838152600d6020526040902054811015612c8c576000838152600d6020526040902080546001919083908110612b8157612b816137c0565b906000526020600020906006020160050160006101000a81548160ff021916908315150217905550600d60008481526020019081526020016000208181548110612bcd57612bcd6137c0565b906000526020600020906006020160030154600a6000828254612bf09190613ac7565b90915550506000838152600d602052604090208054612c7a919083908110612c1a57612c1a6137c0565b906000526020600020906006020160020160009054906101000a90046001600160a01b0316600d60008681526020019081526020016000208381548110612c6357612c636137c0565b906000526020600020906006020160030154612a8a565b80612c84816137a7565b915050612b47565b50506000908152600c6020819052604090912001805462ff0000191662010000179055600190565b60006001600160a01b0384163b15612daa57604051630a85bd0160e11b81526001600160a01b0385169063150b7a0290612cf8903390899088908890600401613b71565b6020604051808303816000875af1925050508015612d33575060408051601f3d908101601f19168201909252612d3091810190613bae565b60015b612d90573d808015612d61576040519150601f19603f3d011682016040523d82523d6000602084013e612d66565b606091505b508051600003612d885760405162461bcd60e51b81526004016108f390613b1f565b805181602001fd5b6001600160e01b031916630a85bd0160e11b1490506125bf565b506001949350505050565b60008072184f03e93ff9f4daa797ed6e38ed64bf6a1f0160401b8310612df45772184f03e93ff9f4daa797ed6e38ed64bf6a1f0160401b830492506040015b6d04ee2d6d415b85acef81000000008310612e20576d04ee2d6d415b85acef8100000000830492506020015b662386f26fc100008310612e3e57662386f26fc10000830492506010015b6305f5e1008310612e56576305f5e100830492506008015b6127108310612e6a57612710830492506004015b60648310612e7c576064830492506002015b600a83106105335760010192915050565b6001600160a01b038216612ee35760405162461bcd60e51b815260206004820181905260248201527f4552433732313a206d696e7420746f20746865207a65726f206164647265737360448201526064016108f3565b6000818152600460205260409020546001600160a01b031615612f485760405162461bcd60e51b815260206004820152601c60248201527f4552433732313a20746f6b656e20616c7265616479206d696e7465640000000060448201526064016108f3565b6000818152600460205260409020546001600160a01b031615612fad5760405162461bcd60e51b815260206004820152601c60248201527f4552433732313a20746f6b656e20616c7265616479206d696e7465640000000060448201526064016108f3565b6001600160a01b038216600081815260056020908152604080832080546001019055848352600490915280822080546001600160a01b0319168417905551839291907fddf252ad1be2c89b69c2b068fc378daa952ba7f163c4a11628f55a4df523b3ef908290a45050565b6040518061020001604052806000815260200160608152602001606081526020016060815260200160006001600160a01b03168152602001600081526020016000815260200160008152602001600081526020016000815260200160008152602001600081526020016000151581526020016000151581526020016000151581526020016000151581525090565b6001600160e01b0319811681146122de57600080fd5b6000602082840312156130ce57600080fd5b81356119c7816130a6565b60005b838110156130f45781810151838201526020016130dc565b50506000910152565b600081518084526131158160208601602086016130d9565b601f01601f19169290920160200192915050565b6020815260006119c760208301846130fd565b60006020828403121561314e57600080fd5b5035919050565b6000610200825184526020830151816020860152613175828601826130fd565b9150506040830151848203604086015261318f82826130fd565b915050606083015184820360608601526131a982826130fd565b91505060808301516131c660808601826001600160a01b03169052565b5060a0838101519085015260c0808401519085015260e080840151908501526101008084015190850152610120808401519085015261014080840151908501526101608084015190850152610180808401511515908501526101a0808401511515908501526101c0808401511515908501526101e092830151151592909301919091525090565b6020815260006119c76020830184613155565b80356001600160a01b038116811461327757600080fd5b919050565b6000806040838503121561328f57600080fd5b61329883613260565b946020939093013593505050565b602080825282518282018190526000919060409081850190868401855b82811015613328578151805185528681015187860152858101516001600160a01b031686860152606080820151908601526080808201519086015260a08082015115159086015260c09081015115159085015260e090930192908501906001016132c3565b5091979650505050505050565b60008060006060848603121561334a57600080fd5b61335384613260565b925061336160208501613260565b9150604084013590509250925092565b6000602080830181845280855180835260408601915060408160051b870101925083870160005b828110156133c657603f198886030184526133b4858351613155565b94509285019290850190600101613398565b5092979650505050505050565b6000602082840312156133e557600080fd5b6119c782613260565b634e487b7160e01b600052604160045260246000fd5b600067ffffffffffffffff8084111561341f5761341f6133ee565b604051601f8501601f19908116603f01168101908282118183101715613447576134476133ee565b8160405280935085815286868601111561346057600080fd5b858560208301376000602087830101525050509392505050565b600082601f83011261348b57600080fd5b6119c783833560208501613404565b600080600080600080600060e0888a0312156134b557600080fd5b873567ffffffffffffffff808211156134cd57600080fd5b6134d98b838c0161347a565b985060208a01359150808211156134ef57600080fd5b6134fb8b838c0161347a565b975060408a013591508082111561351157600080fd5b5061351e8a828b0161347a565b979a96995096976060810135975060808101359660a0820135965060c090910135945092505050565b6000806040838503121561355a57600080fd5b50508035926020909101359150565b6000806040838503121561357c57600080fd5b61358583613260565b91506020830135801515811461359a57600080fd5b809150509250929050565b600080600080608085870312156135bb57600080fd5b6135c485613260565b93506135d260208601613260565b925060408501359150606085013567ffffffffffffffff8111156135f557600080fd5b8501601f8101871361360657600080fd5b61361587823560208401613404565b91505092959194509250565b6000806040838503121561363457600080fd5b61363d83613260565b915061364b60208401613260565b90509250929050565b600080600080600080600080610100898b03121561367157600080fd5b88359750602089013567ffffffffffffffff8082111561369057600080fd5b61369c8c838d0161347a565b985060408b01359150808211156136b257600080fd5b6136be8c838d0161347a565b975060608b01359150808211156136d457600080fd5b506136e18b828c0161347a565b989b979a50959860808101359760a0820135975060c0820135965060e090910135945092505050565b600181811c9082168061371e57607f821691505b60208210810361373e57634e487b7160e01b600052602260045260246000fd5b50919050565b6020808252602d908201527f4552433732313a2063616c6c6572206973206e6f7420746f6b656e206f776e6560408201526c1c881bdc88185c1c1c9bdd9959609a1b606082015260800190565b634e487b7160e01b600052601160045260246000fd5b6000600182016137b9576137b9613791565b5060010190565b634e487b7160e01b600052603260045260246000fd5b60208082526024908201527f5469636b6574436f7374206d7573742062652067726561746572207468616e206040820152637a65726f60e01b606082015260800190565b60208082526022908201527f4361706163697479206d7573742062652067726561746572207468616e207a65604082015261726f60f01b606082015260800190565b60208082526024908201527f53746172742064617465206d7573742062652067726561746572207468616e206040820152637a65726f60e01b606082015260800190565b60208082526028908201527f456e642064617465206d7573742062652067726561746572207468616e207374604082015267617274206461746560c01b606082015260800190565b601f82111561099457600081815260208120601f850160051c8101602086101561390f5750805b601f850160051c820191505b8181101561392e5782815560010161391b565b505050505050565b815167ffffffffffffffff811115613950576139506133ee565b6139648161395e845461370a565b846138e8565b602080601f83116001811461399957600084156139815750858301515b600019600386901b1c1916600185901b17855561392e565b600085815260208120601f198616915b828110156139c8578886015182559484019460019091019084016139a9565b50858210156139e65787850151600019600388901b60f8161c191681555b5050505050600190811b01905550565b6020808252600f908201526e115d995b9d081b9bdd08199bdd5b99608a1b604082015260600190565b808202811582820484141761053357610533613791565b8082018082111561053357610533613791565b60008351613a5b8184602088016130d9565b835190830190613a6f8183602088016130d9565b01949350505050565b602080825260139082015272556e61757468726f697a656420656e7469747960681b604082015260600190565b600082613ac257634e487b7160e01b600052601260045260246000fd5b500490565b8181038181111561053357610533613791565b60208082526025908201527f4552433732313a207472616e736665722066726f6d20696e636f72726563742060408201526437bbb732b960d91b606082015260800190565b60208082526032908201527f4552433732313a207472616e7366657220746f206e6f6e20455243373231526560408201527131b2b4bb32b91034b6b83632b6b2b73a32b960711b606082015260800190565b6001600160a01b0385811682528416602082015260408101839052608060608201819052600090613ba4908301846130fd565b9695505050505050565b600060208284031215613bc057600080fd5b81516119c7816130a656fea2646970667358221220efb261b0fbf089587e26f9afeb80260eee28ca416f294c2b8cbf5c4a42f2d78b64736f6c63430008110033",
  "linkReferences": {},
  "deployedLinkReferences": {}
}