{
  "_format": "hh-sol-artifact-1",
  "contractName": "DappEventX",
  "sourceName": "contracts/DappEventX.sol",
  "abi": [
    {
      "inputs": [
        {
          "internalType": "uint256",
          "name": "_pct",
          "type": "uint256"
        }
      ],
      "stateMutability": "nonpayable",
      "type": "constructor"
    },
    {
      "anonymous": false,
      "inputs": [
        {
          "indexed": true,
          "internalType": "address",
          "name": "owner",
          "type": "address"
        },
        {
          "indexed": true,
          "internalType": "address",
          "name": "approved",
          "type": "address"
        },
        {
          "indexed": true,
          "internalType": "uint256",
          "name": "tokenId",
          "type": "uint256"
        }
      ],
      "name": "Approval",
      "type": "event"
    },
    {
      "anonymous": false,
      "inputs": [
        {
          "indexed": true,
          "internalType": "address",
          "name": "owner",
          "type": "address"
        },
        {
          "indexed": true,
          "internalType": "address",
          "name": "operator",
          "type": "address"
        },
        {
          "indexed": false,
          "internalType": "bool",
          "name": "approved",
          "type": "bool"
        }
      ],
      "name": "ApprovalForAll",
      "type": "event"
    },
    {
      "anonymous": false,
      "inputs": [
        {
          "indexed": true,
          "internalType": "address",
          "name": "previousOwner",
          "type": "address"
        },
        {
          "indexed": true,
          "internalType": "address",
          "name": "newOwner",
          "type": "address"
        }
      ],
      "name": "OwnershipTransferred",
      "type": "event"
    },
    {
      "anonymous": false,
      "inputs": [
        {
          "indexed": true,
          "internalType": "address",
          "name": "from",
          "type": "address"
        },
        {
          "indexed": true,
          "internalType": "address",
          "name": "to",
          "type": "address"
        },
        {
          "indexed": true,
          "internalType": "uint256",
          "name": "tokenId",
          "type": "uint256"
        }
      ],
      "name": "Transfer",
      "type": "event"
    },
    {
      "inputs": [
        {
          "internalType": "address",
          "name": "to",
          "type": "address"
        },
        {
          "internalType": "uint256",
          "name": "tokenId",
          "type": "uint256"
        }
      ],
      "name": "approve",
      "outputs": [],
      "stateMutability": "nonpayable",
      "type": "function"
    },
    {
      "inputs": [],
      "name": "balance",
      "outputs": [
        {
          "internalType": "uint256",
          "name": "",
          "type": "uint256"
        }
      ],
      "stateMutability": "view",
      "type": "function"
    },
    {
      "inputs": [
        {
          "internalType": "address",
          "name": "owner",
          "type": "address"
        }
      ],
      "name": "balanceOf",
      "outputs": [
        {
          "internalType": "uint256",
          "name": "",
          "type": "uint256"
        }
      ],
      "stateMutability": "view",
      "type": "function"
    },
    {
      "inputs": [
        {
          "internalType": "uint256",
          "name": "eventId",
          "type": "uint256"
        },
        {
          "internalType": "uint256",
          "name": "numOfticket",
          "type": "uint256"
        }
      ],
      "name": "buyTickets",
      "outputs": [],
      "stateMutability": "payable",
      "type": "function"
    },
    {
      "inputs": [
        {
          "internalType": "string",
          "name": "title",
          "type": "string"
        },
        {
          "internalType": "string",
          "name": "description",
          "type": "string"
        },
        {
          "internalType": "string",
          "name": "imageUrl",
          "type": "string"
        },
        {
          "internalType": "uint256",
          "name": "capacity",
          "type": "uint256"
        },
        {
          "internalType": "uint256",
          "name": "ticketCost",
          "type": "uint256"
        },
        {
          "internalType": "uint256",
          "name": "startsAt",
          "type": "uint256"
        },
        {
          "internalType": "uint256",
          "name": "endsAt",
          "type": "uint256"
        }
      ],
      "name": "createEvent",
      "outputs": [],
      "stateMutability": "nonpayable",
      "type": "function"
    },
    {
      "inputs": [
        {
          "internalType": "uint256",
          "name": "eventId",
          "type": "uint256"
        }
      ],
      "name": "deleteEvent",
      "outputs": [],
      "stateMutability": "nonpayable",
      "type": "function"
    },
    {
      "inputs": [
        {
          "internalType": "uint256",
          "name": "tokenId",
          "type": "uint256"
        }
      ],
      "name": "getApproved",
      "outputs": [
        {
          "internalType": "address",
          "name": "",
          "type": "address"
        }
      ],
      "stateMutability": "view",
      "type": "function"
    },
    {
      "inputs": [],
      "name": "getEvents",
      "outputs": [
        {
          "components": [
            {
              "internalType": "uint256",
              "name": "id",
              "type": "uint256"
            },
            {
              "internalType": "string",
              "name": "title",
              "type": "string"
            },
            {
              "internalType": "string",
              "name": "imageUrl",
              "type": "string"
            },
            {
              "internalType": "string",
              "name": "description",
              "type": "string"
            },
            {
              "internalType": "address",
              "name": "owner",
              "type": "address"
            },
            {
              "internalType": "uint256",
              "name": "sales",
              "type": "uint256"
            },
            {
              "internalType": "uint256",
              "name": "ticketCost",
              "type": "uint256"
            },
            {
              "internalType": "uint256",
              "name": "capacity",
              "type": "uint256"
            },
            {
              "internalType": "uint256",
              "name": "seats",
              "type": "uint256"
            },
            {
              "internalType": "uint256",
              "name": "startsAt",
              "type": "uint256"
            },
            {
              "internalType": "uint256",
              "name": "endsAt",
              "type": "uint256"
            },
            {
              "internalType": "uint256",
              "name": "timestamp",
              "type": "uint256"
            },
            {
              "internalType": "bool",
              "name": "deleted",
              "type": "bool"
            },
            {
              "internalType": "bool",
              "name": "paidOut",
              "type": "bool"
            },
            {
              "internalType": "bool",
              "name": "refunded",
              "type": "bool"
            },
            {
              "internalType": "bool",
              "name": "minted",
              "type": "bool"
            }
          ],
          "internalType": "struct DappEventX.EventStruct[]",
          "name": "Events",
          "type": "tuple[]"
        }
      ],
      "stateMutability": "view",
      "type": "function"
    },
    {
      "inputs": [],
      "name": "getMyEvents",
      "outputs": [
        {
          "components": [
            {
              "internalType": "uint256",
              "name": "id",
              "type": "uint256"
            },
            {
              "internalType": "string",
              "name": "title",
              "type": "string"
            },
            {
              "internalType": "string",
              "name": "imageUrl",
              "type": "string"
            },
            {
              "internalType": "string",
              "name": "description",
              "type": "string"
            },
            {
              "internalType": "address",
              "name": "owner",
              "type": "address"
            },
            {
              "internalType": "uint256",
              "name": "sales",
              "type": "uint256"
            },
            {
              "internalType": "uint256",
              "name": "ticketCost",
              "type": "uint256"
            },
            {
              "internalType": "uint256",
              "name": "capacity",
              "type": "uint256"
            },
            {
              "internalType": "uint256",
              "name": "seats",
              "type": "uint256"
            },
            {
              "internalType": "uint256",
              "name": "startsAt",
              "type": "uint256"
            },
            {
              "internalType": "uint256",
              "name": "endsAt",
              "type": "uint256"
            },
            {
              "internalType": "uint256",
              "name": "timestamp",
              "type": "uint256"
            },
            {
              "internalType": "bool",
              "name": "deleted",
              "type": "bool"
            },
            {
              "internalType": "bool",
              "name": "paidOut",
              "type": "bool"
            },
            {
              "internalType": "bool",
              "name": "refunded",
              "type": "bool"
            },
            {
              "internalType": "bool",
              "name": "minted",
              "type": "bool"
            }
          ],
          "internalType": "struct DappEventX.EventStruct[]",
          "name": "Events",
          "type": "tuple[]"
        }
      ],
      "stateMutability": "view",
      "type": "function"
    },
    {
      "inputs": [
        {
          "internalType": "uint256",
          "name": "eventId",
          "type": "uint256"
        }
      ],
      "name": "getSingleEvent",
      "outputs": [
        {
          "components": [
            {
              "internalType": "uint256",
              "name": "id",
              "type": "uint256"
            },
            {
              "internalType": "string",
              "name": "title",
              "type": "string"
            },
            {
              "internalType": "string",
              "name": "imageUrl",
              "type": "string"
            },
            {
              "internalType": "string",
              "name": "description",
              "type": "string"
            },
            {
              "internalType": "address",
              "name": "owner",
              "type": "address"
            },
            {
              "internalType": "uint256",
              "name": "sales",
              "type": "uint256"
            },
            {
              "internalType": "uint256",
              "name": "ticketCost",
              "type": "uint256"
            },
            {
              "internalType": "uint256",
              "name": "capacity",
              "type": "uint256"
            },
            {
              "internalType": "uint256",
              "name": "seats",
              "type": "uint256"
            },
            {
              "internalType": "uint256",
              "name": "startsAt",
              "type": "uint256"
            },
            {
              "internalType": "uint256",
              "name": "endsAt",
              "type": "uint256"
            },
            {
              "internalType": "uint256",
              "name": "timestamp",
              "type": "uint256"
            },
            {
              "internalType": "bool",
              "name": "deleted",
              "type": "bool"
            },
            {
              "internalType": "bool",
              "name": "paidOut",
              "type": "bool"
            },
            {
              "internalType": "bool",
              "name": "refunded",
              "type": "bool"
            },
            {
              "internalType": "bool",
              "name": "minted",
              "type": "bool"
            }
          ],
          "internalType": "struct DappEventX.EventStruct",
          "name": "",
          "type": "tuple"
        }
      ],
      "stateMutability": "view",
      "type": "function"
    },
    {
      "inputs": [
        {
          "internalType": "uint256",
          "name": "eventId",
          "type": "uint256"
        }
      ],
      "name": "getTickets",
      "outputs": [
        {
          "components": [
            {
              "internalType": "uint256",
              "name": "id",
              "type": "uint256"
            },
            {
              "internalType": "uint256",
              "name": "eventId",
              "type": "uint256"
            },
            {
              "internalType": "address",
              "name": "owner",
              "type": "address"
            },
            {
              "internalType": "uint256",
              "name": "ticketCost",
              "type": "uint256"
            },
            {
              "internalType": "uint256",
              "name": "timestamp",
              "type": "uint256"
            },
            {
              "internalType": "bool",
              "name": "refunded",
              "type": "bool"
            },
            {
              "internalType": "bool",
              "name": "minted",
              "type": "bool"
            }
          ],
          "internalType": "struct DappEventX.TicketStruct[]",
          "name": "Tickets",
          "type": "tuple[]"
        }
      ],
      "stateMutability": "view",
      "type": "function"
    },
    {
      "inputs": [
        {
          "internalType": "address",
          "name": "owner",
          "type": "address"
        },
        {
          "internalType": "address",
          "name": "operator",
          "type": "address"
        }
      ],
      "name": "isApprovedForAll",
      "outputs": [
        {
          "internalType": "bool",
          "name": "",
          "type": "bool"
        }
      ],
      "stateMutability": "view",
      "type": "function"
    },
    {
      "inputs": [],
      "name": "name",
      "outputs": [
        {
          "internalType": "string",
          "name": "",
          "type": "string"
        }
      ],
      "stateMutability": "view",
      "type": "function"
    },
    {
      "inputs": [],
      "name": "owner",
      "outputs": [
        {
          "internalType": "address",
          "name": "",
          "type": "address"
        }
      ],
      "stateMutability": "view",
      "type": "function"
    },
    {
      "inputs": [
        {
          "internalType": "uint256",
          "name": "tokenId",
          "type": "uint256"
        }
      ],
      "name": "ownerOf",
      "outputs": [
        {
          "internalType": "address",
          "name": "",
          "type": "address"
        }
      ],
      "stateMutability": "view",
      "type": "function"
    },
    {
      "inputs": [
        {
          "internalType": "uint256",
          "name": "eventId",
          "type": "uint256"
        }
      ],
      "name": "payout",
      "outputs": [],
      "stateMutability": "nonpayable",
      "type": "function"
    },
    {
      "inputs": [],
      "name": "renounceOwnership",
      "outputs": [],
      "stateMutability": "nonpayable",
      "type": "function"
    },
    {
      "inputs": [
        {
          "internalType": "address",
          "name": "from",
          "type": "address"
        },
        {
          "internalType": "address",
          "name": "to",
          "type": "address"
        },
        {
          "internalType": "uint256",
          "name": "tokenId",
          "type": "uint256"
        }
      ],
      "name": "safeTransferFrom",
      "outputs": [],
      "stateMutability": "nonpayable",
      "type": "function"
    },
    {
      "inputs": [
        {
          "internalType": "address",
          "name": "from",
          "type": "address"
        },
        {
          "internalType": "address",
          "name": "to",
          "type": "address"
        },
        {
          "internalType": "uint256",
          "name": "tokenId",
          "type": "uint256"
        },
        {
          "internalType": "bytes",
          "name": "data",
          "type": "bytes"
        }
      ],
      "name": "safeTransferFrom",
      "outputs": [],
      "stateMutability": "nonpayable",
      "type": "function"
    },
    {
      "inputs": [
        {
          "internalType": "address",
          "name": "operator",
          "type": "address"
        },
        {
          "internalType": "bool",
          "name": "approved",
          "type": "bool"
        }
      ],
      "name": "setApprovalForAll",
      "outputs": [],
      "stateMutability": "nonpayable",
      "type": "function"
    },
    {
      "inputs": [
        {
          "internalType": "bytes4",
          "name": "interfaceId",
          "type": "bytes4"
        }
      ],
      "name": "supportsInterface",
      "outputs": [
        {
          "internalType": "bool",
          "name": "",
          "type": "bool"
        }
      ],
      "stateMutability": "view",
      "type": "function"
    },
    {
      "inputs": [],
      "name": "symbol",
      "outputs": [
        {
          "internalType": "string",
          "name": "",
          "type": "string"
        }
      ],
      "stateMutability": "view",
      "type": "function"
    },
    {
      "inputs": [
        {
          "internalType": "uint256",
          "name": "tokenId",
          "type": "uint256"
        }
      ],
      "name": "tokenURI",
      "outputs": [
        {
          "internalType": "string",
          "name": "",
          "type": "string"
        }
      ],
      "stateMutability": "view",
      "type": "function"
    },
    {
      "inputs": [
        {
          "internalType": "address",
          "name": "from",
          "type": "address"
        },
        {
          "internalType": "address",
          "name": "to",
          "type": "address"
        },
        {
          "internalType": "uint256",
          "name": "tokenId",
          "type": "uint256"
        }
      ],
      "name": "transferFrom",
      "outputs": [],
      "stateMutability": "nonpayable",
      "type": "function"
    },
    {
      "inputs": [
        {
          "internalType": "address",
          "name": "newOwner",
          "type": "address"
        }
      ],
      "name": "transferOwnership",
      "outputs": [],
      "stateMutability": "nonpayable",
      "type": "function"
    },
    {
      "inputs": [
        {
          "internalType": "uint256",
          "name": "eventId",
          "type": "uint256"
        },
        {
          "internalType": "string",
          "name": "title",
          "type": "string"
        },
        {
          "internalType": "string",
          "name": "description",
          "type": "string"
        },
        {
          "internalType": "string",
          "name": "imageUrl",
          "type": "string"
        },
        {
          "internalType": "uint256",
          "name": "capacity",
          "type": "uint256"
        },
        {
          "internalType": "uint256",
          "name": "ticketCost",
          "type": "uint256"
        },
        {
          "internalType": "uint256",
          "name": "startsAt",
          "type": "uint256"
        },
        {
          "internalType": "uint256",
          "name": "endsAt",
          "type": "uint256"
        }
      ],
      "name": "updateEvent",
      "outputs": [],
      "stateMutability": "nonpayable",
      "type": "function"
    }
  ],
  "bytecode": "0x60806040523480156200001157600080fd5b5060405162003aa438038062003aa483398101604081905262000034916200010b565b6040518060400160405280600781526020016608aeccadce840b60cb1b8152506040518060400160405280600381526020016208aacb60eb1b8152506200008a62000084620000b760201b60201c565b620000bb565b6001805560026200009c8382620001ca565b506003620000ab8282620001ca565b505050600b5562000296565b3390565b600080546001600160a01b038381166001600160a01b0319831681178455604051919092169283917f8be0079c531659141344cd1fd0a4f28419497f9722a3daafe3b4186f6b6457e09190a35050565b6000602082840312156200011e57600080fd5b5051919050565b634e487b7160e01b600052604160045260246000fd5b600181811c908216806200015057607f821691505b6020821081036200017157634e487b7160e01b600052602260045260246000fd5b50919050565b601f821115620001c557600081815260208120601f850160051c81016020861015620001a05750805b601f850160051c820191505b81811015620001c157828155600101620001ac565b5050505b505050565b81516001600160401b03811115620001e657620001e662000125565b620001fe81620001f784546200013b565b8462000177565b602080601f8311600181146200023657600084156200021d5750858301515b600019600386901b1c1916600185901b178555620001c1565b600085815260208120601f198616915b82811015620002675788860151825594840194600190910190840162000246565b5085821015620002865787850151600019600388901b60f8161c191681555b5050505050600190811b01905550565b6137fe80620002a66000396000f3fe6080604052600436106101815760003560e01c8063835e489f116100d1578063b88d4fde1161008a578063e985e9c511610064578063e985e9c514610467578063ead6d0dd14610487578063f2fde38b146104a7578063f8749a58146104c757600080fd5b8063b88d4fde14610407578063c87b56dd14610427578063e11523431461044757600080fd5b8063835e489f1461036b5780638627df461461038b5780638da5cb5b1461039e57806395d89b41146103bc578063a22cb465146103d1578063b69ef8a8146103f157600080fd5b806323b872dd1161013e57806342842e0e1161011857806342842e0e146102e85780636352211e1461030857806370a0823114610328578063715018a61461035657600080fd5b806323b872dd146102915780633548124b146102b1578063404aa8f9146102d357600080fd5b806301ffc9a71461018657806306fdde03146101bb578063071843aa146101dd578063081812fc1461020a578063095ea7b31461024257806314f2979f14610264575b600080fd5b34801561019257600080fd5b506101a66101a1366004612cfb565b6104e7565b60405190151581526020015b60405180910390f35b3480156101c757600080fd5b506101d0610539565b6040516101b29190612d68565b3480156101e957600080fd5b506101fd6101f8366004612d7b565b6105cb565b6040516101b29190612e8c565b34801561021657600080fd5b5061022a610225366004612d7b565b610858565b6040516001600160a01b0390911681526020016101b2565b34801561024e57600080fd5b5061026261025d366004612ebb565b61087f565b005b34801561027057600080fd5b5061028461027f366004612d7b565b610999565b6040516101b29190612ee5565b34801561029d57600080fd5b506102626102ac366004612f74565b610a5f565b3480156102bd57600080fd5b506102c6610a90565b6040516101b29190612fb0565b3480156102df57600080fd5b506102c6610e66565b3480156102f457600080fd5b50610262610303366004612f74565b6111e8565b34801561031457600080fd5b5061022a610323366004612d7b565b611203565b34801561033457600080fd5b50610348610343366004613012565b611263565b6040519081526020016101b2565b34801561036257600080fd5b506102626112e9565b34801561037757600080fd5b506102626103863660046130d9565b6112fd565b610262610399366004613186565b611653565b3480156103aa57600080fd5b506000546001600160a01b031661022a565b3480156103c857600080fd5b506101d0611941565b3480156103dd57600080fd5b506102626103ec3660046131a8565b611950565b3480156103fd57600080fd5b50610348600a5481565b34801561041357600080fd5b506102626104223660046131e4565b61195f565b34801561043357600080fd5b506101d0610442366004612d7b565b611997565b34801561045357600080fd5b50610262610462366004612d7b565b611a0b565b34801561047357600080fd5b506101a6610482366004613260565b611bfb565b34801561049357600080fd5b506102626104a2366004613293565b611c29565b3480156104b357600080fd5b506102626104c2366004613012565b611eb4565b3480156104d357600080fd5b506102626104e2366004612d7b565b611f2d565b60006001600160e01b031982166380ac58cd60e01b148061051857506001600160e01b03198216635b5e139f60e01b145b8061053357506301ffc9a760e01b6001600160e01b03198316145b92915050565b60606002805461054890613349565b80601f016020809104026020016040519081016040528092919081815260200182805461057490613349565b80156105c15780601f10610596576101008083540402835291602001916105c1565b820191906000526020600020905b8154815290600101906020018083116105a457829003601f168201915b5050505050905090565b6105d3612c57565b600c6000838152602001908152602001600020604051806102000160405290816000820154815260200160018201805461060c90613349565b80601f016020809104026020016040519081016040528092919081815260200182805461063890613349565b80156106855780601f1061065a57610100808354040283529160200191610685565b820191906000526020600020905b81548152906001019060200180831161066857829003601f168201915b5050505050815260200160028201805461069e90613349565b80601f01602080910402602001604051908101604052809291908181526020018280546106ca90613349565b80156107175780601f106106ec57610100808354040283529160200191610717565b820191906000526020600020905b8154815290600101906020018083116106fa57829003601f168201915b5050505050815260200160038201805461073090613349565b80601f016020809104026020016040519081016040528092919081815260200182805461075c90613349565b80156107a95780601f1061077e576101008083540402835291602001916107a9565b820191906000526020600020905b81548152906001019060200180831161078c57829003601f168201915b505050918352505060048201546001600160a01b03166020820152600582015460408201526006820154606082015260078201546080820152600882015460a0820152600982015460c0820152600a82015460e0820152600b82015461010080830191909152600c9092015460ff808216151561012084015292810483161515610140830152620100008104831615156101608301526301000000900490911615156101809091015292915050565b600061086382612134565b506000908152600660205260409020546001600160a01b031690565b600061088a82611203565b9050806001600160a01b0316836001600160a01b0316036108fc5760405162461bcd60e51b815260206004820152602160248201527f4552433732313a20617070726f76616c20746f2063757272656e74206f776e656044820152603960f91b60648201526084015b60405180910390fd5b336001600160a01b038216148061091857506109188133611bfb565b61098a5760405162461bcd60e51b815260206004820152603d60248201527f4552433732313a20617070726f76652063616c6c6572206973206e6f7420746f60448201527f6b656e206f776e6572206f7220617070726f76656420666f7220616c6c00000060648201526084016108f3565b6109948383612193565b505050565b6060600d6000838152602001908152602001600020805480602002602001604051908101604052809291908181526020016000905b82821015610a545760008481526020908190206040805160e08101825260068602909201805483526001808201548486015260028201546001600160a01b03169284019290925260038101546060840152600481015460808401526005015460ff808216151560a085015261010090910416151560c083015290835290920191016109ce565b505050509050919050565b610a693382612201565b610a855760405162461bcd60e51b81526004016108f390613383565b610994838383612260565b6060600060015b6008548111610b01576000818152600c60208190526040909120015460ff16158015610adc57506000818152600c60205260409020600401546001600160a01b031633145b15610aef5781610aeb816133e6565b9250505b80610af9816133e6565b915050610a97565b508067ffffffffffffffff811115610b1b57610b1b61302d565b604051908082528060200260200182016040528015610b5457816020015b610b41612c57565b815260200190600190039081610b395790505b509150600060015b6008548111610e60576000818152600c60208190526040909120015460ff16158015610ba157506000818152600c60205260409020600401546001600160a01b031633145b15610e4e57600c60008281526020019081526020016000206040518061020001604052908160008201548152602001600182018054610bdf90613349565b80601f0160208091040260200160405190810160405280929190818152602001828054610c0b90613349565b8015610c585780601f10610c2d57610100808354040283529160200191610c58565b820191906000526020600020905b815481529060010190602001808311610c3b57829003601f168201915b50505050508152602001600282018054610c7190613349565b80601f0160208091040260200160405190810160405280929190818152602001828054610c9d90613349565b8015610cea5780601f10610cbf57610100808354040283529160200191610cea565b820191906000526020600020905b815481529060010190602001808311610ccd57829003601f168201915b50505050508152602001600382018054610d0390613349565b80601f0160208091040260200160405190810160405280929190818152602001828054610d2f90613349565b8015610d7c5780601f10610d5157610100808354040283529160200191610d7c565b820191906000526020600020905b815481529060010190602001808311610d5f57829003601f168201915b505050918352505060048201546001600160a01b03166020820152600582015460408201526006820154606082015260078201546080820152600882015460a0820152600982015460c0820152600a82015460e0820152600b82015461010080830191909152600c9092015460ff80821615156101208401529281048316151561014083015262010000810483161515610160830152630100000090049091161515610180909101528483610e30816133e6565b945081518110610e4257610e426133ff565b60200260200101819052505b80610e58816133e6565b915050610b5c565b50505090565b6060600060015b6008548111610eb0576000818152600c60208190526040909120015460ff16610e9e5781610e9a816133e6565b9250505b80610ea8816133e6565b915050610e6d565b508067ffffffffffffffff811115610eca57610eca61302d565b604051908082528060200260200182016040528015610f0357816020015b610ef0612c57565b815260200190600190039081610ee85790505b509150600060015b6008548111610e60576000818152600c60208190526040909120015460ff166111d657600c60008281526020019081526020016000206040518061020001604052908160008201548152602001600182018054610f6790613349565b80601f0160208091040260200160405190810160405280929190818152602001828054610f9390613349565b8015610fe05780601f10610fb557610100808354040283529160200191610fe0565b820191906000526020600020905b815481529060010190602001808311610fc357829003601f168201915b50505050508152602001600282018054610ff990613349565b80601f016020809104026020016040519081016040528092919081815260200182805461102590613349565b80156110725780601f1061104757610100808354040283529160200191611072565b820191906000526020600020905b81548152906001019060200180831161105557829003601f168201915b5050505050815260200160038201805461108b90613349565b80601f01602080910402602001604051908101604052809291908181526020018280546110b790613349565b80156111045780601f106110d957610100808354040283529160200191611104565b820191906000526020600020905b8154815290600101906020018083116110e757829003601f168201915b505050918352505060048201546001600160a01b03166020820152600582015460408201526006820154606082015260078201546080820152600882015460a0820152600982015460c0820152600a82015460e0820152600b82015461010080830191909152600c9092015460ff808216151561012084015292810483161515610140830152620100008104831615156101608301526301000000900490911615156101809091015284836111b8816133e6565b9450815181106111ca576111ca6133ff565b60200260200101819052505b806111e0816133e6565b915050610f0b565b6109948383836040518060200160405280600081525061195f565b6000818152600460205260408120546001600160a01b0316806105335760405162461bcd60e51b8152602060048201526018602482015277115490cdcc8c4e881a5b9d985b1a59081d1bdad95b88125160421b60448201526064016108f3565b60006001600160a01b0382166112cd5760405162461bcd60e51b815260206004820152602960248201527f4552433732313a2061646472657373207a65726f206973206e6f7420612076616044820152683634b21037bbb732b960b91b60648201526084016108f3565b506001600160a01b031660009081526005602052604090205490565b6112f16123c4565b6112fb600061241e565b565b6000831161131d5760405162461bcd60e51b81526004016108f390613415565b600084116113785760405162461bcd60e51b815260206004820152602260248201527f4361706163697479206d7573742062652067726561746572207468616e207a65604482015261726f60f01b60648201526084016108f3565b60008751116113c15760405162461bcd60e51b81526020600482015260156024820152745469746c652063616e6e6f7420626520656d70747960581b60448201526064016108f3565b60008651116114125760405162461bcd60e51b815260206004820152601b60248201527f4465736372697074696f6e2063616e6e6f7420626520656d707479000000000060448201526064016108f3565b600085511161145e5760405162461bcd60e51b8152602060048201526018602482015277496d61676555726c2063616e6e6f7420626520656d70747960401b60448201526064016108f3565b6000821161147e5760405162461bcd60e51b81526004016108f390613459565b81811161149d5760405162461bcd60e51b81526004016108f39061349d565b6114ab600880546001019055565b6114b3612c57565b600854815260208101889052606081018790526040810186905260e0810185905260c08101849052610120810183905261014081018290523360808201526114f961246e565b61016082015280516000908152600e60209081526040808320805460ff1916600190811790915584518452600c83529220835181559083015183928201906115419082613533565b50604082015160028201906115569082613533565b506060820151600382019061156b9082613533565b5060808201516004820180546001600160a01b0319166001600160a01b0390921691909117905560a0820151600582015560c0820151600682015560e082015160078201556101008083015160088301556101208301516009830155610140830151600a830155610160830151600b830155610180830151600c90920180546101a08501516101c08601516101e09096015161ffff1990921694151561ff001916949094179315159092029290921763ffff00001916620100009315159390930263ff0000001916929092176301000000921515929092029190911790555050505050505050565b6000828152600e602052604090205460ff166116815760405162461bcd60e51b81526004016108f3906135f3565b6000828152600c602052604090206006015461169e90829061361c565b3410156116e35760405162461bcd60e51b8152602060048201526013602482015272125b9cdd59999a58da595b9d08185b5bdd5b9d606a1b60448201526064016108f3565b600081116117415760405162461bcd60e51b815260206004820152602560248201527f4e756d4f667469636b6574206d7573742062652067726561746572207468616e604482015264207a65726f60d81b60648201526084016108f3565b6000828152600c602052604090206007810154600890910154611765908390613633565b11156117b35760405162461bcd60e51b815260206004820152601760248201527f4f7574206f662073656174696e6720636170616369747900000000000000000060448201526064016108f3565b60005b818110156118fd5761180b6040518060e00160405280600081526020016000815260200160006001600160a01b0316815260200160008152602001600081526020016000151581526020016000151581525090565b6000848152600d602090815260408083205484528382018790523384820152868352600c909152902060060154606082015261184561246e565b608082019081526000858152600d6020908152604080832080546001818101835591855293839020865160069095020193845591850151918301919091558301516002820180546001600160a01b039092166001600160a01b0319909216919091179055606083015160038201559051600482015560a08201516005909101805460c09093015115156101000261ff00199215159290921661ffff1990931692909217179055806118f5816133e6565b9150506117b6565b506000828152600c60205260408120600801805483929061191f908490613633565b9250508190555034600a60008282546119389190613633565b90915550505050565b60606003805461054890613349565b61195b33838361248d565b5050565b6119693383612201565b6119855760405162461bcd60e51b81526004016108f390613383565b6119918484848461255b565b50505050565b60606119a282612134565b60006119b960408051602081019091526000815290565b905060008151116119d95760405180602001604052806000815250611a04565b806119e38461258e565b6040516020016119f4929190613646565b6040516020818303038152906040525b9392505050565b6000818152600e602052604090205460ff16611a395760405162461bcd60e51b81526004016108f3906135f3565b6000818152600c602081905260409091200154610100900460ff1615611a9a5760405162461bcd60e51b8152602060048201526016602482015275115d995b9d08185b1c9958591e481c185a59081bdd5d60521b60448201526064016108f3565b6000818152600c60205260409020600401546001600160a01b0316331480611acc57506000546001600160a01b031633145b611ae85760405162461bcd60e51b81526004016108f390613675565b611af181612621565b611b345760405162461bcd60e51b8152602060048201526014602482015273115d995b9d0819985a5b1959081d1bc81b5a5b9d60621b60448201526064016108f3565b6000818152600c602052604081206008810154600690910154611b57919061361c565b905060006064600b5483611b6b919061361c565b611b7591906136a2565b6000848152600c6020526040902060040154909150611ba6906001600160a01b0316611ba183856136c4565b612723565b611bc1611bbb6000546001600160a01b031690565b82612723565b6000838152600c60208190526040822001805461ff001916610100179055600a8054849290611bf19084906136c4565b9091555050505050565b6001600160a01b03918216600090815260076020908152604080832093909416825291909152205460ff1690565b6000888152600e602052604090205460ff16611c575760405162461bcd60e51b81526004016108f3906135f3565b6000888152600c60205260409020600401546001600160a01b03163314611c905760405162461bcd60e51b81526004016108f390613675565b60008311611cb05760405162461bcd60e51b81526004016108f390613415565b60008411611d0b5760405162461bcd60e51b815260206004820152602260248201527f6361706163697479206d7573742062652067726561746572207468616e207a65604482015261726f60f01b60648201526084016108f3565b6000875111611d545760405162461bcd60e51b81526020600482015260156024820152745469746c652063616e6e6f7420626520656d70747960581b60448201526064016108f3565b6000865111611da55760405162461bcd60e51b815260206004820152601b60248201527f4465736372697074696f6e2063616e6e6f7420626520656d707479000000000060448201526064016108f3565b6000855111611df15760405162461bcd60e51b8152602060048201526018602482015277496d61676555726c2063616e6e6f7420626520656d70747960401b60448201526064016108f3565b818111611e105760405162461bcd60e51b81526004016108f39061349d565b60008211611e305760405162461bcd60e51b81526004016108f390613459565b6000888152600c60205260409020600101611e4b8882613533565b506000888152600c60205260409020600301611e678782613533565b506000888152600c60205260409020600201611e838682613533565b506000978852600c6020526040909720600781019390935560068301919091556009820155600a0193909355505050565b611ebc6123c4565b6001600160a01b038116611f215760405162461bcd60e51b815260206004820152602660248201527f4f776e61626c653a206e6577206f776e657220697320746865207a65726f206160448201526564647265737360d01b60648201526084016108f3565b611f2a8161241e565b50565b6000818152600e602052604090205460ff16611f5b5760405162461bcd60e51b81526004016108f3906135f3565b6000818152600c60205260409020600401546001600160a01b0316331480611f8d57506000546001600160a01b031633145b611fa95760405162461bcd60e51b81526004016108f390613675565b6000818152600c602081905260409091200154610100900460ff161561200a5760405162461bcd60e51b8152602060048201526016602482015275115d995b9d08185b1c9958591e481c185a59081bdd5d60521b60448201526064016108f3565b6000818152600c60208190526040909120015462010000900460ff161561206c5760405162461bcd60e51b8152602060048201526016602482015275115d995b9d08185b1c9958591e481c99599d5b99195960521b60448201526064016108f3565b6000818152600c60208190526040909120015460ff16156120c75760405162461bcd60e51b8152602060048201526015602482015274115d995b9d08185b1c9958591e4819195b195d1959605a1b60448201526064016108f3565b6120d081612783565b6121155760405162461bcd60e51b8152602060048201526016602482015275115d995b9d0819985a5b1959081d1bc81c99599d5b9960521b60448201526064016108f3565b6000908152600c6020819052604090912001805460ff19166001179055565b6000818152600460205260409020546001600160a01b0316611f2a5760405162461bcd60e51b8152602060048201526018602482015277115490cdcc8c4e881a5b9d985b1a59081d1bdad95b88125160421b60448201526064016108f3565b600081815260066020526040902080546001600160a01b0319166001600160a01b03841690811790915581906121c882611203565b6001600160a01b03167f8c5be1e5ebec7d5bd14f71427d1e84f3dd0314c0f7b2291e5b200ac8c7c3b92560405160405180910390a45050565b60008061220d83611203565b9050806001600160a01b0316846001600160a01b0316148061223457506122348185611bfb565b806122585750836001600160a01b031661224d84610858565b6001600160a01b0316145b949350505050565b826001600160a01b031661227382611203565b6001600160a01b0316146122995760405162461bcd60e51b81526004016108f3906136d7565b6001600160a01b0382166122fb5760405162461bcd60e51b8152602060048201526024808201527f4552433732313a207472616e7366657220746f20746865207a65726f206164646044820152637265737360e01b60648201526084016108f3565b826001600160a01b031661230e82611203565b6001600160a01b0316146123345760405162461bcd60e51b81526004016108f3906136d7565b600081815260066020908152604080832080546001600160a01b03199081169091556001600160a01b0387811680865260058552838620805460001901905590871680865283862080546001019055868652600490945282852080549092168417909155905184937fddf252ad1be2c89b69c2b068fc378daa952ba7f163c4a11628f55a4df523b3ef91a4505050565b6000546001600160a01b031633146112fb5760405162461bcd60e51b815260206004820181905260248201527f4f776e61626c653a2063616c6c6572206973206e6f7420746865206f776e657260448201526064016108f3565b600080546001600160a01b038381166001600160a01b0319831681178455604051919092169283917f8be0079c531659141344cd1fd0a4f28419497f9722a3daafe3b4186f6b6457e09190a35050565b600061247c426103e861361c565b612488906103e8613633565b905090565b816001600160a01b0316836001600160a01b0316036124ee5760405162461bcd60e51b815260206004820152601960248201527f4552433732313a20617070726f766520746f2063616c6c65720000000000000060448201526064016108f3565b6001600160a01b03838116600081815260076020908152604080832094871680845294825291829020805460ff191686151590811790915591519182527f17307eab39ab6107e8899845ad3d59bd9653f200f220920489ca2b5937696c31910160405180910390a3505050565b612566848484612260565b612572848484846128f3565b6119915760405162461bcd60e51b81526004016108f39061371c565b6060600061259b836129f4565b600101905060008167ffffffffffffffff8111156125bb576125bb61302d565b6040519080825280601f01601f1916602001820160405280156125e5576020820181803683370190505b5090508181016020015b600019016f181899199a1a9b1b9c1cb0b131b232b360811b600a86061a8153600a85049450846125ef57509392505050565b6000805b6000838152600d60205260409020548110156126f957612649600980546001019055565b6000838152600d602052604090208054600191908390811061266d5761266d6133ff565b906000526020600020906006020160050160016101000a81548160ff0219169083151502179055506126e7600d600085815260200190815260200160002082815481106126bc576126bc6133ff565b60009182526020909120600260069092020101546001600160a01b03166126e260095490565b612acc565b806126f1816133e6565b915050612625565b50506000908152600c6020819052604090912001805463ff00000019166301000000179055600190565b6000826001600160a01b03168260405160006040518083038185875af1925050503d8060008114612770576040519150601f19603f3d011682016040523d82523d6000602084013e612775565b606091505b505090508061099457600080fd5b6000805b6000838152600d60205260409020548110156128cb576000838152600d60205260409020805460019190839081106127c1576127c16133ff565b906000526020600020906006020160050160006101000a81548160ff021916908315150217905550612870600d60008581526020019081526020016000208281548110612810576128106133ff565b906000526020600020906006020160020160009054906101000a90046001600160a01b0316600d60008681526020019081526020016000208381548110612859576128596133ff565b906000526020600020906006020160030154612723565b6000838152600d60205260409020805482908110612890576128906133ff565b906000526020600020906006020160030154600a60008282546128b391906136c4565b909155508190506128c3816133e6565b915050612787565b50506000908152600c6020819052604090912001805462ff0000191662010000179055600190565b60006001600160a01b0384163b156129e957604051630a85bd0160e11b81526001600160a01b0385169063150b7a029061293790339089908890889060040161376e565b6020604051808303816000875af1925050508015612972575060408051601f3d908101601f1916820190925261296f918101906137ab565b60015b6129cf573d8080156129a0576040519150601f19603f3d011682016040523d82523d6000602084013e6129a5565b606091505b5080516000036129c75760405162461bcd60e51b81526004016108f39061371c565b805181602001fd5b6001600160e01b031916630a85bd0160e11b149050612258565b506001949350505050565b60008072184f03e93ff9f4daa797ed6e38ed64bf6a1f0160401b8310612a335772184f03e93ff9f4daa797ed6e38ed64bf6a1f0160401b830492506040015b6d04ee2d6d415b85acef81000000008310612a5f576d04ee2d6d415b85acef8100000000830492506020015b662386f26fc100008310612a7d57662386f26fc10000830492506010015b6305f5e1008310612a95576305f5e100830492506008015b6127108310612aa957612710830492506004015b60648310612abb576064830492506002015b600a83106105335760010192915050565b6001600160a01b038216612b225760405162461bcd60e51b815260206004820181905260248201527f4552433732313a206d696e7420746f20746865207a65726f206164647265737360448201526064016108f3565b6000818152600460205260409020546001600160a01b031615612b875760405162461bcd60e51b815260206004820152601c60248201527f4552433732313a20746f6b656e20616c7265616479206d696e7465640000000060448201526064016108f3565b6000818152600460205260409020546001600160a01b031615612bec5760405162461bcd60e51b815260206004820152601c60248201527f4552433732313a20746f6b656e20616c7265616479206d696e7465640000000060448201526064016108f3565b6001600160a01b038216600081815260056020908152604080832080546001019055848352600490915280822080546001600160a01b0319168417905551839291907fddf252ad1be2c89b69c2b068fc378daa952ba7f163c4a11628f55a4df523b3ef908290a45050565b6040518061020001604052806000815260200160608152602001606081526020016060815260200160006001600160a01b03168152602001600081526020016000815260200160008152602001600081526020016000815260200160008152602001600081526020016000151581526020016000151581526020016000151581526020016000151581525090565b6001600160e01b031981168114611f2a57600080fd5b600060208284031215612d0d57600080fd5b8135611a0481612ce5565b60005b83811015612d33578181015183820152602001612d1b565b50506000910152565b60008151808452612d54816020860160208601612d18565b601f01601f19169290920160200192915050565b602081526000611a046020830184612d3c565b600060208284031215612d8d57600080fd5b5035919050565b6000610200825184526020830151816020860152612db482860182612d3c565b91505060408301518482036040860152612dce8282612d3c565b91505060608301518482036060860152612de88282612d3c565b9150506080830151612e0560808601826001600160a01b03169052565b5060a0838101519085015260c0808401519085015260e080840151908501526101008084015190850152610120808401519085015261014080840151908501526101608084015190850152610180808401511515908501526101a0808401511515908501526101c0808401511515908501526101e092830151151592909301919091525090565b602081526000611a046020830184612d94565b80356001600160a01b0381168114612eb657600080fd5b919050565b60008060408385031215612ece57600080fd5b612ed783612e9f565b946020939093013593505050565b602080825282518282018190526000919060409081850190868401855b82811015612f67578151805185528681015187860152858101516001600160a01b031686860152606080820151908601526080808201519086015260a08082015115159086015260c09081015115159085015260e09093019290850190600101612f02565b5091979650505050505050565b600080600060608486031215612f8957600080fd5b612f9284612e9f565b9250612fa060208501612e9f565b9150604084013590509250925092565b6000602080830181845280855180835260408601915060408160051b870101925083870160005b8281101561300557603f19888603018452612ff3858351612d94565b94509285019290850190600101612fd7565b5092979650505050505050565b60006020828403121561302457600080fd5b611a0482612e9f565b634e487b7160e01b600052604160045260246000fd5b600067ffffffffffffffff8084111561305e5761305e61302d565b604051601f8501601f19908116603f011681019082821181831017156130865761308661302d565b8160405280935085815286868601111561309f57600080fd5b858560208301376000602087830101525050509392505050565b600082601f8301126130ca57600080fd5b611a0483833560208501613043565b600080600080600080600060e0888a0312156130f457600080fd5b873567ffffffffffffffff8082111561310c57600080fd5b6131188b838c016130b9565b985060208a013591508082111561312e57600080fd5b61313a8b838c016130b9565b975060408a013591508082111561315057600080fd5b5061315d8a828b016130b9565b979a96995096976060810135975060808101359660a0820135965060c090910135945092505050565b6000806040838503121561319957600080fd5b50508035926020909101359150565b600080604083850312156131bb57600080fd5b6131c483612e9f565b9150602083013580151581146131d957600080fd5b809150509250929050565b600080600080608085870312156131fa57600080fd5b61320385612e9f565b935061321160208601612e9f565b925060408501359150606085013567ffffffffffffffff81111561323457600080fd5b8501601f8101871361324557600080fd5b61325487823560208401613043565b91505092959194509250565b6000806040838503121561327357600080fd5b61327c83612e9f565b915061328a60208401612e9f565b90509250929050565b600080600080600080600080610100898b0312156132b057600080fd5b88359750602089013567ffffffffffffffff808211156132cf57600080fd5b6132db8c838d016130b9565b985060408b01359150808211156132f157600080fd5b6132fd8c838d016130b9565b975060608b013591508082111561331357600080fd5b506133208b828c016130b9565b989b979a50959860808101359760a0820135975060c0820135965060e090910135945092505050565b600181811c9082168061335d57607f821691505b60208210810361337d57634e487b7160e01b600052602260045260246000fd5b50919050565b6020808252602d908201527f4552433732313a2063616c6c6572206973206e6f7420746f6b656e206f776e6560408201526c1c881bdc88185c1c1c9bdd9959609a1b606082015260800190565b634e487b7160e01b600052601160045260246000fd5b6000600182016133f8576133f86133d0565b5060010190565b634e487b7160e01b600052603260045260246000fd5b60208082526024908201527f5469636b6574436f7374206d7573742062652067726561746572207468616e206040820152637a65726f60e01b606082015260800190565b60208082526024908201527f53746172742064617465206d7573742062652067726561746572207468616e206040820152637a65726f60e01b606082015260800190565b60208082526028908201527f456e642064617465206d7573742062652067726561746572207468616e207374604082015267617274206461746560c01b606082015260800190565b601f82111561099457600081815260208120601f850160051c8101602086101561350c5750805b601f850160051c820191505b8181101561352b57828155600101613518565b505050505050565b815167ffffffffffffffff81111561354d5761354d61302d565b6135618161355b8454613349565b846134e5565b602080601f831160018114613596576000841561357e5750858301515b600019600386901b1c1916600185901b17855561352b565b600085815260208120601f198616915b828110156135c5578886015182559484019460019091019084016135a6565b50858210156135e35787850151600019600388901b60f8161c191681555b5050505050600190811b01905550565b6020808252600f908201526e115d995b9d081b9bdd08199bdd5b99608a1b604082015260600190565b8082028115828204841417610533576105336133d0565b80820180821115610533576105336133d0565b60008351613658818460208801612d18565b83519083019061366c818360208801612d18565b01949350505050565b602080825260139082015272556e617574686f72697a656420656e7469747960681b604082015260600190565b6000826136bf57634e487b7160e01b600052601260045260246000fd5b500490565b81810381811115610533576105336133d0565b60208082526025908201527f4552433732313a207472616e736665722066726f6d20696e636f72726563742060408201526437bbb732b960d91b606082015260800190565b60208082526032908201527f4552433732313a207472616e7366657220746f206e6f6e20455243373231526560408201527131b2b4bb32b91034b6b83632b6b2b73a32b960711b606082015260800190565b6001600160a01b03858116825284166020820152604081018390526080606082018190526000906137a190830184612d3c565b9695505050505050565b6000602082840312156137bd57600080fd5b8151611a0481612ce556fea264697066735822122039625d2170b08e16b0d274483f459c19cb3dcb63ca352c266d04d1db3dc350c864736f6c63430008110033",
  "linkReferences": {},
  "deployedLinkReferences": {}
}